:020000040800F2
:10000000000002209906000895060008C57F000838
:1000100095060008950600089506000800000000F7
:10002000000000000000000000000000950600082D
:10003000950600080000000095060008497F0008AA
:100040009506000895060008950600089506000824
:100050009506000895060008950600089506000814
:10006000950600089506000895060008517B0008D3
:100070005D7B000815660008697B0008757B000839
:10008000953F0108357000089506000895060008A0
:1000900095060008950600089506000895060008D4
:1000A00095060008950600089506000895060008C4
:1000B000693301087533010881330108697000084C
:1000C000950600087570000895060008D92B0108F0
:1000D000E52B0108C93D0108F93D01082D3E010845
:1000E0009506000895060008000000009506000827
:1000F0009506000895060008950600089506000874
:1001000095060008950600088D330108F12B0108BB
:10011000613E0108953E0108E16800089506000867
:10012000C9680008D5680008152C0108492C010889
:10013000C93F0108950600089506000895060008C5
:1001400000000000000000000000000000000000AF
:10015000950600089506000895060008C93E0108A6
:100160008170000895060008597F00087D7F00080F
:1001700095060008A17F000895060008950600086E
:100180009506000895060008FD3E01082D3F010870
:10019000FD2B0108092C01089506000895060008AA
:1001A00095060008950600089506000895060008C3
:1001B0007178000895060008950600089506000865
:1001C00095060008950600083561000841610008A1
:1001D000950600084D610008950600089506000880
:1001E0009506000895060008950600089506000883
:1001F0009506000895060008950600089506000873
:100200009506000895060008950600089506000862
:100210009506000895060008950600089506000852
:1002200095060008950600089506000800000000E5
:1002300095060008950600080000000095060008D5
:100240009506000895060008950600089506000822
:100250009506000895060008950600089506000812
:100260009506000895060008950600089506000802
:100270009506000895060008613F0108000000008F
:100280009506000895060008950600080000000085
:080290000000000095060008C3
:1002A00010B5054C237833B9044B13B10448AFF3B0
:1002B00000800123237010BDB0070024000000005F
:1002C000A8A7010808B5034B1BB103490348AFF3C6
:1002D000008008BD00000000B4070024A8A70108A2
:1002E00001F0FF01102A2BDB10F0070F08D010F8E7
:1002F000013B013A8B422DD010F0070F42B3F6D1EB
:10030000F0B441EA012141EA014122F007047FF003
:1003100000070023F0E80256083C85EA010586EA5A
:10032000010685FA47F5A3FA87F586FA47F6A5FA96
:1003300087F68EB9EED1F0BC01F0FF0102F00702A2
:1003400032B110F8013B013A83EA010313B1F8D14D
:100350000020704701387047002D06BF354603382E
:10036000073815F0010F07D1013015F4807F02BF67
:10037000013015F4C03F0130F0BC0138704700BFB8
:10038000034613F8012B002AFBD1181A01387047D5
:1003900053B94AB9002908BF00281CBF4FF0FF31EC
:1003A0004FF0FF3000F074B9ADF1080C6DE904CEE8
:1003B00000F006F8DDF804E0DDE9022304B0704740
:1003C0002DE9F047089D04468E46002B4DD18A4208
:1003D000944669D9B2FA82F252B101FA02F3C2F13B
:1003E000200120FA01F10CFA02FC41EA030E9440CC
:1003F0004FEA1C48210CBEFBF8F61FFA8CF708FBED
:1004000016E341EA034306FB07F199420AD91CEBC4
:10041000030306F1FF3080F01F81994240F21C81F6
:10042000023E63445B1AA4B2B3FBF8F008FB10333E
:1004300044EA034400FB07F7A7420AD91CEB040473
:1004400000F1FF3380F00A81A74240F20781644443
:10045000023840EA0640E41B00261DB1D4400023C8
:10046000C5E900433146BDE8F0878B4209D9002D2C
:1004700000F0EF800026C5E9000130463146BDE8B6
:10048000F087B3FA83F6002E4AD18B4202D3824220
:1004900000F2F980841A61EB030301209E46002DCF
:1004A000E0D0C5E9004EDDE702B9FFDEB2FA82F224
:1004B000002A40F09280A1EB0C014FEA1C471FFA82
:1004C0008CFE0126200CB1FBF7F307FB131140EA69
:1004D00001410EFB03F0884208D91CEB010103F136
:1004E000FF3802D2884200F2CB804346091AA4B2F8
:1004F000B1FBF7F007FB101144EA01440EFB00FECC
:10050000A64508D91CEB040400F1FF3102D2A64530
:1005100000F2BB800846A4EB0E0440EA03409CE7CF
:10052000C6F12007B34022FA07FC4CEA030C20FA7C
:1005300007F401FA06F31C43F9404FEA1C4900FA9C
:1005400006F3B1FBF9F8200C1FFA8CFE09FB181119
:1005500040EA014108FB0EF0884202FA06F20BD98C
:100560001CEB010108F1FF3A80F08880884240F2DC
:100570008580A8F102086144091AA4B2B1FBF9F020
:1005800009FB101144EA014100FB0EFE8E4508D91B
:100590001CEB010100F1FF346CD28E456AD90238A0
:1005A000614440EA0840A0FB0294A1EB0E01A14285
:1005B000C846A64656D353D05DB1B3EB080261EBF3
:1005C0000E0101FA07F722FA06F3F1401F43C5E9CD
:1005D000007100263146BDE8F087C2F12003D84003
:1005E0000CFA02FC21FA03F3914001434FEA1C4745
:1005F0001FFA8CFEB3FBF7F007FB10360B0C43EA37
:10060000064300FB0EF69E4204FA02F408D91CEBE6
:10061000030300F1FF382FD29E422DD902386344E4
:100620009B1B89B2B3FBF7F607FB163341EA034184
:1006300006FB0EF38B4208D91CEB010106F1FF38D3
:1006400016D28B4214D9023E6144C91A46EA0046CA
:1006500038E72E46284605E70646E3E61846F8E65C
:100660004B45A9D2B9EB020864EB0C0E0138A3E7A5
:100670004646EAE7204694E74046D1E7D0467BE786
:10068000023B614432E7304609E76444023842E7FE
:10069000704700BFFEE700BF0B480C4A904203D0F2
:1006A000121A0B4916F0CAFB0A480B4A904203D0B3
:1006B000121A002116F0EAFB07F0B0FE16F07AFBE2
:1006C00003F092F9FEE700BF00000024B007002409
:1006D000E0A70108B0070024C8780024704700BFD5
:1006E000704700BF704700BFA1EB000C4FEAAC039E
:1006F0004FEA2C1CBCF1000F40DD00EB0C1C10B4C9
:1007000013780BE04468A3420ED08468A3420FD054
:10071000C468A34210D01030604511D004689C42D8
:10072000F0D15DF8044B704704305DF8044B70471E
:1007300008305DF8044B70470C305DF8044B70478F
:100740000B1A9B10022B13D0032B0BD0012B03D0C1
:1007500008465DF8044B7047137802689A42E0D06F
:100760000846F6E7137802689A42DAD0043000E0CF
:10077000137802689A42D4D00430EEE7022B05D0F9
:10078000032B0ED0012B0AD008467047137802685D
:100790009A4203D0043002689A42F5D17047137828
:1007A000F9E7137802689A42F8D00430EFE700BF07
:1007B000F0B500F1080783B0076029B30446084686
:1007C0000E46FFF7DDFD0F28054601900DD80128E4
:1007D00008D133782372019B002122686360D154D1
:1007E00003B0F0BD0028F6D008E0002201A92046A1
:1007F00016F034F9019B07462060A3602A46314673
:10080000384616F01BFBE6E7014816F015F900BF65
:10081000709E010881423FD083682DE9F0430D4668
:10082000076883B00446A3EB0708D1E90019A9EBD8
:10083000010646450FD84068C21B96422DD889450F
:1008400004D03846324616F007FB27683E446660FF
:1008500003B0BDE8F083002E35D01D4B9E4234D846
:100860003046019116F021F82768A36805460199E2
:10087000A3EB0708894503D03246284616F0DEFA76
:100880001FB14146384616F00EF82E442560A6608A
:10089000666003B0BDE8F08370473AB1384616F0A1
:1008A000DBFAD4E90070D5E90019C21B11444945AF
:1008B000CCD0A9EB010216F0CFFA23681E44666083
:1008C00003B0BDE8F0833546D4E716F0B2F800BFB8
:1008D000FCFFFF7F42B31548B7EE006AD0ED007A07
:1008E0004368F8EEE77AD0ED026A017C1A4486EE9E
:1008F000277A10B40024013307EE903AF8EEE77A35
:1009000067EE877A31B1F4EEE67AF1EE10FA01DBA8
:100910000C4600219A42EED14260C0ED037A04B148
:1009200001745DF8044B7047704700BF480A00240B
:1009300010B50446006818B1A168091A15F0B3FF94
:10094000204610BDE8B138B504462546E068FFF7FB
:10095000F9FFA468AB6A18461BB1296BC91A15F0D8
:10096000A2FF286905F11803984203D0A969013153
:1009700015F099FF3421284615F095FF002CE4D19D
:1009800038BD704710B504468068FFF7DBFF20468E
:1009900010BD00BF2DE9F04F83B00090002800F09B
:1009A000D880009BD3F80C90B9F1000F00F0BF8005
:1009B000D9F80CA0BAF1000F00F0A580DAF80CB05D
:1009C000BBF1000F00F08B80DBF80C40002C5ED0F8
:1009D000E568002D38D0EE68002E46D0F768002F6D
:1009E00069D0D7F80C80B8F1000F19D0D8F80C00F6
:1009F000CDF80480FFF7CEFF019AD8F8088010697F
:100A000002F11801884204D09169013115F04BFFC1
:100A1000019A2C21104615F046FFB8F1000FE5D1E0
:100A2000386907F11802D7F80880904203D0B969F5
:100A3000013115F038FF2C21384615F034FFB8F19C
:100A4000000F38D04746CCE7206904F11803A568A9
:100A5000984203D0A169013115F025FF2C212046D1
:100A600015F021FF9DB12C46B2E7286905F1180366
:100A7000AE68984203D0A969013115F014FF2C210A
:100A8000284615F010FF002EDED03546A3E7DBF830
:100A900010000BF11803DBF80840984204D0DBF893
:100AA0001810013115F0FFFE2C21584615F0FBFE01
:100AB000ACB1A34688E7306906F11803D6F8088080
:100AC000984203D0B169013115F0EDFE2C2130467A
:100AD00015F0E9FEB8F1000FC7D046467EE7DAF818
:100AE00010000AF11803DAF80840984204D0DAF846
:100AF0001810013115F0D7FE2C21504615F0D3FE09
:100B00000CB1A2465AE7D9F8100009F11803D9F838
:100B10000840984204D0D9F81810013115F0C3FEEE
:100B20002C21484615F0BFFE0CB1A14640E7009AC3
:100B3000106902F118039468984203D09169013159
:100B400015F0B1FE2C21009815F0ADFE0CB100940B
:100B500027E703B0BDE8F08F2DE9F043044685B0E8
:100B60002C200E4615F0A1FEA56907461C30D4E9DD
:100B7000043818EB050FC7E9043002D0B8F1000FB4
:100B800071D00F2D03955ED8012D45D198F8003016
:100B90003B770023BD6143552278E0683A707E6060
:100BA000C7E9023318B13946FFF7D6FFF860A568E8
:100BB00075B33C462C20A14615F077FE2B69044600
:100BC0001C302361AE696061D5F8148018EB060F04
:100BD00002D0B8F1000F46D00F2E039622D8012E76
:100BE0001DD198F8003023770023A66183552A7819
:100BF000C4E902332270C9F80840C4F80490E868D8
:100C000018B12146FFF7A8FFE060AD68002DD1D1F3
:100C1000384605B0BDE8F083002DBAD01CE0002EA8
:100C2000E2D009E0002203A904F1140015F016FF38
:100C3000039B01906061E3613246414616F0FEF885
:100C4000039E6069D0E7002203A907F1140015F0A4
:100C500005FF039B7861FB612A46414616F0EEF8DA
:100C6000039D786995E7014815F0E6FE709E01083E
:100C70002DE9F043044683B02C200E4615F015FEF6
:100C800007461830D4E90485386118EB050F02D007
:100C9000B8F1000F72D00F2D01955FD8012D47D10B
:100CA00098F800303B7600237D614355A26AE068E6
:100CB000BA627E60C7E9023323783B7018B13946C7
:100CC000FFF7D6FFF860A56875B33C462C20A04618
:100CD00015F0EBFD044618306E692061D5F81090D0
:100CE00019EB060F02D0B9F1000F47D00F2E019675
:100CF00024D8012E1FD199F8003023760023666195
:100D00008355A96A2A78A1622270C4E90233C8F81F
:100D10000840C4F80480E86818B12146FFF7A8FF2E
:100D2000E060AD68002DD1D1384603B0BDE8F08356
:100D3000002DB8D01BE0002EE0D008E0002201A971
:100D400004F1100015F08AFE019B2061A361324678
:100D5000494616F073F8019E2069CFE7002201A9E9
:100D600007F1100015F07AFE019B3861BB612A463D
:100D7000414616F063F8019D386994E7014815F083
:100D80005BFE00BF709E01082DE9F04F83B000901C
:100D9000002800F0D880009BD3F80C90B9F1000F28
:100DA00000F0BF80D9F80CA0BAF1000F00F0A580C8
:100DB000DAF80CB0BBF1000F00F08B80DBF80C40D0
:100DC000002C5ED0E568002D38D0EE68002E46D0AD
:100DD000F768002F69D0D7F80C80B8F1000F19D050
:100DE000D8F80C00CDF80480FFF7CEFF019AD8F8B0
:100DF0000880506902F11C01884204D0D169013198
:100E000015F051FD019A2C21104615F04CFDB8F15A
:100E1000000FE5D1786907F11C02D7F808809042ED
:100E200003D0F969013115F03EFD2C21384615F04B
:100E30003AFDB8F1000F38D04746CCE7606904F1BD
:100E40001C03A568984203D0E169013115F02BFD20
:100E50002C21204615F027FD9DB12C46B2E768698C
:100E600005F11C03AE68984203D0E969013115F021
:100E70001AFD2C21284615F016FD002EDED0354631
:100E8000A3E7DBF814000BF11C03DBF808409842E1
:100E900004D0DBF81C10013115F005FD2C2158465B
:100EA00015F001FDACB1A34688E7706906F11C039B
:100EB000D6F80880984203D0F169013115F0F3FCAF
:100EC0002C21304615F0EFFCB8F1000FC7D0464694
:100ED0007EE7DAF814000AF11C03DAF808409842B9
:100EE00004D0DAF81C10013115F0DDFC2C2150463D
:100EF00015F0D9FC0CB1A2465AE7D9F8140009F153
:100F00001C03D9F80840984204D0D9F81C100131CC
:100F100015F0C9FC2C21484615F0C5FC0CB1A146C2
:100F200040E7009A506902F11C039468984203D08C
:100F3000D169013115F0B7FC2C21009815F0B3FCF4
:100F40000CB1009427E703B0BDE8F08FF8B51F4F50
:100F500007F51B66346C9CB12546E068FFF714FF6B
:100F6000A468686905F11C03984203D0E96901315E
:100F700015F099FC2C21284615F095FC002CEBD19E
:100F8000B46A9CB12546E068FFF704FDA4682869AF
:100F900005F11803984203D0A969013115F083FCCB
:100FA0002C21284615F07FFC002CEBD1706806F14F
:100FB0000C03984203D0F168013115F074FCBE4275
:100FC000A6F1500301D01E46C4E7F8BD0C0B002467
:100FD00070B5846806469CB12546E068FFF7D4FEEC
:100FE000A468686905F11C03984203D0E9690131DE
:100FF00015F059FC2C21284615F055FC002CEBD19E
:10100000304670BD70B5046C06469CB12546E0685C
:10101000FFF7BAFEA468686905F11C03984203D083
:10102000E969013115F03FFC2C21284615F03BFC05
:10103000002CEBD1B46A9CB12546E068FFF7AAFC0E
:10104000A468286905F11803984203D0A969013101
:1010500015F029FC2C21284615F025FC002CEBD19D
:10106000706806F10C03984203D0F168013115F065
:101070001AFC304670BD00BF2DE9F047566884B0B9
:10108000174604468846002E00F0AA807368536015
:10109000002B00F0C380DA6896424FF0000200F0A7
:1010A000C3809A60706906F11C09484503D0F16954
:1010B000013115F0F8FB2369C6E90439D4E905A527
:1010C0001AEB050F03D0BAF1000F00F02C810F2DA1
:1010D000039500F20581012D40F0A2809AF80030BE
:1010E00033770023B56109F805302378C6F804800A
:1010F00033700023C6E90233E06820B13A46314636
:10110000FFF7BAFFF060A568002D00F0A3807C68AF
:10111000B046002C46D063687B60002B00F09E80B8
:10112000DA6894424FF0000200F0B2809A60606981
:1011300004F11C09484503D0E169013115F0B3FB06
:101140002B69C4F81490D5F814A02361AB691AEB8D
:10115000030F03D0BAF1000F00F0E5800F2B0393CB
:1011600000F28180012B7BD19AF8002022770022A7
:10117000A36109F803202A7800232270C4E902330E
:10118000C8F80840C4F80480E86820B13A4621460F
:10119000FFF772FFE060AD68002D5BD0A0467C6871
:1011A000002CB8D12C2015F080FB2B6904461C3094
:1011B0002361AB696061D5F8149019EB030F03D07C
:1011C000B9F1000F00F0AF800F2B039376D8012BFD
:1011D00071D199F8002022770022A361C254CAE796
:1011E0002C2015F062FB236906461C3040F80C3CAD
:1011F0007061D4E9059519EB050F03D0B9F1000F23
:1012000000F091800F2D03957DD8012D1FD199F805
:10121000003033770023B561435566E7136041E73B
:10122000002D3FF45EAF65E0DA609A68002A3FF473
:1012300039AFD3687A6023B11A46DB68002BFBD143
:101240007A609368002B3FF42DAF7B602AE7002D76
:10125000E0D061E0304604B0BDE8F0873B6066E76F
:10126000002B84D00BE0002203A904F114000193A9
:1012700015F0F4FB039A8146019B6061E2611A4616
:101280004846514615F0DAFD039BD4F814906EE7FA
:10129000DA609A68002A3FF44AAFD3687A6023B1D3
:1012A0001A46DB68002BFBD17A609368002B3FF471
:1012B0003EAF7B603BE7002B8ED00AE0002203A903
:1012C00004F11400019315F0C9FB039A019B6061BE
:1012D000E2611A46494615F0B1FD039B60697BE760
:1012E000002203A906F1140015F0B8FB039B814608
:1012F0007061F3612A464846514615F09FFD039DF3
:10130000D6F81490EDE6002203A906F1140015F0BA
:10131000A5FB039B7061F3612A46494615F08EFDDB
:10132000039D706976E7014815F086FB709E010801
:1013300070B5036984B0846805460E460390CDE914
:101340000143002C36D000229B68626003B10293F7
:101350000023291DC5E90231B068C5E9041398B11D
:1013600001AAFFF789FE03461A469B68002BFBD1B2
:101370000346EA601A46DB68002BFBD17369019CC7
:101380002A61A8606B619CB12546E068FFF7FCFC10
:10139000A468686905F11C03984203D0E96901312A
:1013A00015F081FA2C21284615F07DFA002CEBD19E
:1013B00004B070BD8460011DB06802946C61C5E921
:1013C00003110028CCD104B070BD00BF2DE9F04757
:1013D000566884B0174604468846002E00F0AA805E
:1013E00073685360002B00F0C280DA6896424FF0B9
:1013F000000200F0C2809A60306906F11809484581
:1014000003D0B169013115F04EFAC6F81090D4E955
:1014100004A51AEB050F03D0BAF1000F00F02C81E0
:101420000F2D039500F20581012D40F0A2809AF85E
:10143000003033760023756109F80530A36AB36282
:101440002378C6F8048033700023C6E90233E068CD
:1014500020B13A463146FFF7B9FFF060A568002D8C
:1014600000F0A1807C68B046002C45D063687B60AA
:10147000002B00F09C80DA6894424FF0000200F0EC
:10148000B0809A60206904F11809484503D0A16929
:10149000013115F008FAC4F81090D5E904A31AEB4D
:1014A000030F03D0BAF1000F00F0E6800F2B039377
:1014B00000F28280012B7CD19AF800202276002253
:1014C000636109F80320AB6AA3622A7800232270C3
:1014D000C4E90233C8F80840C4F80480E86820B1C1
:1014E0003A462146FFF772FFE060AD68002D5AD002
:1014F000A0467C68002CB9D12C2015F0D6F9044602
:1015000018306B692061D5F8109019EB030F03D0E8
:10151000B9F1000F00F0B0800F2B039377D8012BA7
:1015200072D199F80020227600226361C254AB6A1E
:10153000A362CAE72C2015F0B8F906461830D4E9A2
:101540000495306119EB050F03D0B9F1000F00F0DD
:1015500093800F2D03957FD8012D21D199F800306C
:101560003376002375614355A36AB36268E713605D
:1015700042E7002D3FF45EAF65E0DA609A68002A2A
:101580003FF43AAFD3687A6023B11A46DB68002B88
:10159000FBD17A609368002B3FF42EAF7B602BE782
:1015A000002DDED061E0304604B0BDE8F0873B603E
:1015B00068E7002B83D00BE0002203A904F11000A0
:1015C000019315F04BFA039A8146019B2061A261B9
:1015D0001A464846514615F031FC039BD4F810904A
:1015E0006DE7DA609A68002A3FF44CAFD3687A60FE
:1015F00023B11A46DB68002BFBD17A609368002B7D
:101600003FF440AF7B603DE7002B8DD00AE0002225
:1016100003A904F11000019315F020FA039A019B2D
:101620002061A2611A46494615F008FC039B206917
:101630007AE7002203A906F1100015F00FFA039BC8
:1016400081463061B3612A464846514615F0F6FBA3
:10165000039DD6F81090EDE6002203A906F11000D4
:1016600015F0FCF9039B3061B3612A46494615F039
:10167000E5FB039D306974E7014815F0DDF900BF13
:10168000709E010870B5036984B0846805460E46F3
:101690000390CDE90143002C36D000229B686260A4
:1016A00003B102930023291DC5E90231B068C5E9E1
:1016B000041398B101AAFFF789FE03461A469B68F6
:1016C000002BFBD10346EA601A46DB68002BFBD1F6
:1016D0007369019C2A61A8606B619CB12546E06832
:1016E000FFF758F9A468286905F11803984203D058
:1016F000A969013115F0D7F82C21284615F0D3F847
:10170000002CEBD104B070BD8460011DB068029460
:101710006C61C5E903110028CCD104B070BD00BFD5
:1017200070B50D1E20DD041F002604EB8501224646
:1017300052F8043F8A421E44FAD116F09FFA90FBF9
:10174000F6F303FB1603002003E001309B1A8542E9
:1017500004D054F8042F9A42F7DD70BD044B1521D4
:10176000044A054815F0E0FA16F088FAFFDE00BFDB
:101770009C9E0108C49E0108E49E0108F0B583B058
:10178000002302AC04E9060004461148B0EB820FC6
:10179000A360C4E9003318D396007EB130460F46EB
:1017A00015F083F805463946324635442060A56079
:1017B00015F044FB2046656003B0F0BD3546204679
:1017C0002660A660656003B0F0BD024815F037F9E9
:1017D000FCFFFF7FF09E01082DE9F041044600F177
:1017E000080782B00846276088461546FEF7C8FD00
:1017F0000F280646019017D8012812D198F800301A
:101800002372002366602046BB55D5E900122B6089
:10181000E261AA68A1616B60AB60226202B0BDE8C0
:10182000F0810028EDD008E0002201A9204615F043
:1018300015F9019B07462060A360324638464146B1
:1018400015F0FCFA019E2768DBE700BF2DE9F041A7
:10185000044600F1080782B008462760884615460E
:10186000FEF78EFD0F280646019017D8012812D1E9
:1018700098F800302372002366602046BB55D5E9F6
:1018800000122B60E261AA68A1616B60AB6022620A
:1018900002B0BDE8F0810028EDD008E0002201A9E7
:1018A000204615F0DBF8019B07462060A360324616
:1018B0003846414615F0C2FA019E2768DBE700BFB3
:1018C0002DE9F041044600F1080782B00846276080
:1018D00088461546FEF754FD0F280646019017D896
:1018E000012812D198F80030237200236660204648
:1018F000BB55D5E900122B60E261AA68A1616B605B
:10190000AB60226202B0BDE8F0810028EDD008E0B3
:10191000002201A9204615F0A1F8019B074620608E
:10192000A36032463846414615F088FA019E276882
:10193000DBE700BF2DE9F041044600F1080782B063
:101940000846276088461546FEF71AFD0F2806460A
:10195000019017D8012812D198F800302372002383
:1019600066602046BB55D5E900122B60E261AA688B
:10197000A1616B60AB60226202B0BDE8F08100281B
:10198000EDD008E0002201A9204615F067F8019B80
:1019900007462060A36032463846414615F04EFAAD
:1019A000019E2768DBE700BF2DE9F041044600F106
:1019B000080782B00846276088461546FEF7E0FC17
:1019C0000F280646019017D8012812D198F8003048
:1019D0002372002366602046BB55D5E900122B60B8
:1019E000E261AA68A1616B60AB60226202B0BDE8EF
:1019F000F0810028EDD008E0002201A9204615F072
:101A00002DF8019B07462060A360324638464146C8
:101A100015F014FA019E2768DBE700BF2DE9F843B3
:101A200084688CB300F10408D1E9009647466569E3
:101A3000B5422A4628BF324622B14946206915F0F0
:101A4000EDF900B9A81B0028D4E9023218DB2746BB
:101A50001C46002CEBD1B84516D07C69B442224616
:101A600028BF324652B14846396915F0D7F928B136
:101A7000002809DB07F12800BDE8F883301BF7E7F1
:101A80001446002CD3D1E6E7014814F0DBFF00BF79
:101A9000249F010870B5D1E9002500230E46AD1A38
:101AA00004468360C0E9003319D00F4B9D4218D81B
:101AB000284614F0FAFE03461D44C4E90033A5602D
:101AC000D6E900108842A0EB010504D018462A464A
:101AD00015F0C2F903462B442046636070BD2B46C7
:101AE000EAE714F0A6FF00BFFCFFFF7F10B5044635
:101AF000006818B1A168091A14F0D5FE204610BD7F
:101B00002DE9F04F8C6883B08B4681460192A4B3D7
:101B1000019BD3E900A800E01446666945462769A1
:101B20005046B045394628BF35462A4615B115F00E
:101B300075F908B9A8EB06000028D4E90212AEBF77
:101B400000210A460121002AE6D1B9B9A3468DB188
:101B50002A465146384615F061F958B100284FF031
:101B600000034846B4BFC9E9003BC9E9004303B0DC
:101B7000BDE8F08FA6EB0800F0E70C1DDBF80C3099
:101B8000A3420ED02046A34614F0F6FE019B044665
:101B9000D0E90476D3E900A83546464528BF454636
:101BA000D5E700234846C9E9003403B0BDE8F08F0B
:101BB0002DE9F04F1F460B1D83B00E469A42054695
:101BC0004DD01446D7E900B8D2E90419C246C84539
:101BD00028BFCA46BAF1000F1CD0524658460191A0
:101BE00015F01CF90028019902D1A8EB0903002B7C
:101BF00014DB08465246594615F010F908B9A9EB0E
:101C00000800002850DB0023C5E90043284603B044
:101C1000BDE8F08FA8EB0903002BF0DAF368A342CC
:101C200017D0204614F0A8FED0F814A08146C24573
:101C3000524628BF424622B15946006915F0EEF8D7
:101C400008B9AAEB0800002825DAD9F80C30002BD7
:101C50004BD02846C5E9004403B0BDE8F08F4B697E
:101C6000CBB10C69D7F80480D4F81490C1454A462A
:101C700028BF424622B13968206915F0CFF808B96B
:101C8000A9EB0800002806DA00232846C5E900343D
:101C900003B0BDE8F08F28463A463146FFF730FFE3
:101CA000284603B0BDE8F08F3369A342ECD020464C
:101CB00014F060FED0F814A08146C245524628BFF9
:101CC000424662B15846D9F8101015F0A7F830B165
:101CD0000028E0DAE3682BB1C5E9009996E7A8EBA4
:101CE0000A00F5E7C5E9003490E7C5E900398DE75A
:101CF0002DE9F047154684B006462C200F4614F017
:101D0000D4FD2A6800F11809044600F11003C0F858
:101D10001090D2E9008518EB050F02D0B8F1000F42
:101D200066D00F2D029529D8012D21D198F80020D9
:101D3000CC460DF1080A2276002165613A465046EC
:101D40000CF80510A1623146FFF732FFDDE902759C
:101D500055B3331D002F36D001202A46214614F0FA
:101D60000DFE736920460133736104B0BDE8F0874E
:101D7000002D40D1CC460DF1080ADDE70DF1080A2F
:101D8000002218460193514614F068FE029A019B06
:101D90002061A2612A464146019315F04FF8029D49
:101DA000D4F810C0019BC7E72069814503D0A16921
:101DB000013114F078FD20462C2114F074FD3846D2
:101DC00004B0BDE8F0879D42C6D0D4F814806F6996
:101DD0004246B84528BF3A4632B129692069019385
:101DE00015F01CF8019B08B9A8EB0700C00FB4E779
:101DF000034814F021FE48460DF1080ACAE700BF67
:101E0000709E0108000000002DE9F04FC3B285B0BC
:101E1000434F0190009317F8083CA7F12009009A5E
:101E200040494846134407F8083C14F057FF00287F
:101E30006CD017F8063CB0EE005B17F8082C013B9D
:101E400007EE102A06EE903AB8EEC77BB8EEE66BC6
:101E50009FED314BA6EE047B37EE457BB7EEC77B9B
:101E60007C68A7F1040A07ED097A002C44D0B84633
:101E700057E908B665695946B5422A4628BF324631
:101E80001AB1206914F0CAFF00B9A81B0028D4E9D0
:101E900002322DDBA0461C46002CEBD1B8452CD0DD
:101EA000D8F81440B442224628BF32462AB1D8F8A6
:101EB0001010584614F0B2FF00B9301B00281CDB8C
:101EC00017F8083C5037D8F82820013303EB4303B8
:101ED0009B00013B134407F8573C134BBB429AD17C
:101EE000124A019913680B44136005B0BDE8F08FE6
:101EF0001446002CBED1D1E7B846414603AA50464D
:101F0000CDF80C90FFF7F4FE8046D9E79FED087AF4
:101F1000A6E700BFAFF30080F792C6681D55B53F36
:101F2000300B00242C9F010830150024440A0024A3
:101F3000000000002DE9F043154685B007462C202F
:101F40000E4614F0B2FC2B4600F11808044600F1CE
:101F5000100253F8081BC0F8108099424DD001615F
:101F6000A96881612B600023696802A82B726B60ED
:101F7000AB6961613146A362FFF7C2FDDDE90295FD
:101F800045B3331DB9F1000F0ED001202A4621467A
:101F900014F0F4FC7369012238463C6013443A7132
:101FA000736105B0BDE8F0839D42EED0D4F8149083
:101FB000D5F814804A46C14528BF424632B1296946
:101FC0002069019314F02AFF019B08B9A9EB0800CE
:101FD000C00FDBE72069804503D0A169013114F00F
:101FE00062FC20462C2114F05EFC00233846C7F822
:101FF00000903B7105B0BDE8F083A9688161596824
:10200000C8F804109968C8F80810D968C8F80C1006
:10201000A8E700BF2DE9F8438C6880469146B4B12B
:10202000166800E01C462569E268B542A368D6BF81
:10203000134601270027002BF4D14FB9AE422346A7
:1020400013DC00234046C8E90043BDE8F8830C1DBB
:10205000CB68A3420FD0204614F08EFCD9F8006064
:10206000056923460446AE42EBDD00224046C8E93E
:102070000023BDE8F88300234046C8E90034BDE8EA
:10208000F88300BF2DE9F0411D460B1D0F460646A3
:102090009A4224D0D5F800801446136943450FDDD9
:1020A000CB68934236D0104614F066FC0369434572
:1020B0001CDAC3689BB33046C6E90044BDE8F08132
:1020C0001CDA0B6993421FD0104614F053FC0369CD
:1020D00098450BDAE3682BB3C6E900000BE04B69C7
:1020E00023B10B6929681A6991420DDC2A463946E9
:1020F0003046FFF78FFF3046BDE8F0810023C0E98E
:1021000000233046BDE8F08100223046C6E90023B6
:10211000BDE8F081C0E900333046BDE8F081C6E992
:102120000030E8E7C6E90034E5E700BF91426BD034
:102130002DE9F04F0C4687B09346814600F1040A22
:1021400014E01B782B774FF0000E5346AE613A46F1
:10215000294640460CF806E014F010FCD9F814307B
:102160000133C9F814301C34A3454AD023465246E3
:10217000494604A8FFF786FF059F002FF3D0A7EB81
:102180000A08049BB8FA88F84FEA5818002B18BFC1
:1021900048F00108B8F1000F2AD02C2014F085FB7C
:1021A000A66800F11C0C0546D4E90023F342C0E9FF
:1021B000042C00D04BB30F2E039604D8012EC0D0B0
:1021C000002EC0D00BE0002203A905F114000193FA
:1021D00014F044FC039A8446019B6861EA6132462C
:1021E0006046194614F02AFE039ED5F814C0AAE7EB
:1021F00022683B699A42ACBF4FF000084FF00108DB
:10220000CBE707B0BDE8F08F7047014814F014FC2D
:10221000709E0108F0B5174683B005462C200E4687
:1022200014F043FB39680023324600F11C060968AC
:102230000446836101612946037700F1100346617A
:102240006846FFF71FFFDDE90072A2B12B1D4FB1F9
:102250000120214614F092FB6B69204601336B612B
:1022600003B0F0BD9A42F3D0206911698842ACBF37
:1022700000200120EDE76069864203D0E169013169
:1022800014F011FB20462C2114F00DFB384603B04E
:10229000F0BD00BF2DE9F041154682B007462C2065
:1022A0000E4614F002FB2B6800F11C086A68044615
:1022B000036105F10C03C0F814809A423CD04261DE
:1022C000EA68C261AA6831466B600023A261684671
:1022D00004F110022B73AB60FFF79CFEDDE90052A6
:1022E000C2B1331D6DB10120214614F047FB736963
:1022F000012238463C6013443A71736102B0BDE874
:10230000F0819A42EFD0206911698842ACBF002069
:102310000120E9E76069804503D0E169013114F0EB
:10232000C2FA20462C2114F0BEFA002338463D6044
:102330003B7102B0BDE8F081EA68C2615A68C8F832
:1023400004209A68C8F80820DA68C8F80C20B9E7B1
:1023500070B501238AB000F12006054605AC049350
:102360000993432301A803AA31460394ADF814301E
:10237000FFF7E0FD0398A04203D00599013114F066
:1023800092FA022301A803AA31460493099342F268
:1023900043330394ADF8143000238DF81630FFF763
:1023A000C9FD0398A04203D00599013114F07BFACE
:1023B000012301A803AA3146049344230394ADF8F2
:1023C000143003230993FFF7B5FD0398A04203D00F
:1023D0000599013114F067FA46F2452303AA314604
:1023E0000394ADF814300223049300238DF81630C3
:1023F00004230DEB03000993FFF79CFD0398A04213
:1024000003D00599013114F04EFA012301A803AA63
:102410003146049345230394ADF814300523099302
:10242000FFF788FD0398A04203D00599013114F00D
:102430003AFA012301A803AA3146049346230394E0
:10244000ADF8143006230993FFF774FD0398A042FA
:1024500003D00599013114F026FA42F2463301A85F
:1024600003AA3146ADF814300223039404930023E9
:102470008DF8163007230993FFF75CFD0398A042FF
:1024800003D00599013114F00EFA012301A803AA23
:102490003146049347230394ADF81430082309937D
:1024A000FFF748FD0398A04203D00599013114F0CD
:1024B000FAF942F2473301A803AA3146ADF81430C5
:1024C00002230394049300238DF816300923099303
:1024D000FFF730FD0398A04203D00599013114F0B5
:1024E000E2F9012301A803AA31460493412303948E
:1024F000ADF814300A230993FFF71CFD0398A0429E
:1025000003D00599013114F0CEF946F2422301A817
:1025100003AA3146ADF81430022303940493002338
:102520008DF816300B230993FFF704FD0398A042A2
:1025300003D00599013114F0B6F9012301A8314601
:10254000039404934223ADF814300C230DEB0302E3
:102550000993FFF7EFFC0398A04203D005990131DE
:1025600014F0A1F90123383506AC01A8039303AA9E
:102570000593432329460494ADF81830FFF78AFEEB
:102580000498A04203D00699013114F08CF902237B
:1025900001A803AA29460593CDE9033400238DF849
:1025A0001A3042F24333ADF81830FFF773FE049847
:1025B000A04203D00699013114F075F9032301A854
:1025C00003AA2946CDE90334012305934423ADF83A
:1025D0001830FFF75FFE0498A04203D0069901313E
:1025E00014F061F9042301A803AA2946CDE90334B4
:1025F00046F24523ADF818300223059300238DF8E9
:102600001A30FFF747FE0498A04203D00699013123
:1026100014F049F9052301A803AA2946CDE903349A
:10262000012305934523ADF81830FFF733FE0498D6
:10263000A04203D00699013114F035F9062301A810
:1026400003AA2946CDE90334012305934623ADF8B7
:102650001830FFF71FFE0498A04203D006990131FD
:1026600014F021F9072301A803AA2946CDE9033470
:1026700042F24633ADF818300223059300238DF85B
:102680001A30FFF707FE0498A04203D006990131E3
:1026900014F009F9082301A803AA2946CDE9033457
:1026A000012305934723ADF81830FFF7F3FD049895
:1026B000A04203D00699013114F0F5F8092301A8CE
:1026C00003AA2946CDE9033442F24733ADF8183066
:1026D0000223059300238DF81A30FFF7DBFD0498E1
:1026E000A04203D00699013114F0DDF80A2301A8B5
:1026F00003AA2946CDE90334012305934123ADF80C
:102700001830FFF7C7FD0498A04203D006990131A5
:1027100014F0C9F80B2301A803AA2946CDE9033414
:1027200046F24223ADF818300223059300238DF8BA
:102730001A30FFF7AFFD0498A04203D0069901318B
:1027400014F0B1F80C2301A829460DEB0302039302
:102750000123CDE904434223ADF81830FFF79AFD79
:102760000498A04203D00699013114F09CF80AB0F5
:1027700070BD00BF00000000654AD2E900312DE9BC
:10278000F043C91A044685B018468910614DFEF71A
:10279000C7FF614A6D7F0023126804F10C0104F148
:1027A0003C07261D52F820202046A360B846154459
:1027B000237384F82430A362013D636384F83C30C2
:1027C000EDB22364E36404F124036160C4E90B33D4
:1027D000C4E91177FFF7BCFD504B6577A3FB0523D8
:1027E000DB0803EB4303A5EB8305236C0135EDB256
:1027F000A577002B3AD019698D42D3E902025EDD3C
:102800001346002BF7D1474530D0D8F810309D4201
:102810002CDB08F11401304614F07AF9637F3F4A4B
:1028200030463F49A2FB0323DB08013B237714F02A
:1028300055FA002848D0A37FB0EE005B227F2046E7
:10284000013B07EE102A06EE903AB8EEC77BB8EED1
:10285000E66B9FED2D4BA6EE047B37EE457BB7EE86
:10286000C77B84ED007A05B0BDE8F0832C20CDF85D
:10287000048014F01AF8002300F11C09056183613B
:102880008046037704F13801019A00F11003C0F883
:10289000149002A8FFF7F6FBDDE90252E2B1281E10
:1028A00018BF0120974208BF40F0010018B33B4613
:1028B000414614F063F8E36C0133E364A9E79846FA
:1028C0000346002B97D19EE79FED167A204684EDB4
:1028D000007A05B0BDE8F083D8F81400814504D033
:1028E000D8F81C10013113F0DEFF40462C21A84619
:1028F00013F0D9FF8DE7D8F8100013699842ACBFE8
:1029000000200120D3E700BFF792C6681D55B53FF0
:1029100044150024BC0A002450150024ABAAAAAA1E
:102920002C9F01080000000030B5314895B003F03D
:10293000E3FA15F0A3F92F4B054668461C6895FB92
:10294000F4F303FB14552C4CFFF716FF009B05EB2B
:10295000850501A904EB051004460430236014F03A
:10296000D7F89DF81E20BDF81C3004F12000A27796
:1029700008A9A383FEF786FE04F138000EA9FEF72E
:10298000D7FC109C9CB12546E068FEF7FDF9A468D1
:10299000686905F11C03984203D0E969013113F01D
:1029A00082FF2C21284613F07EFF002CEBD10A9CDD
:1029B0009CB12546E068FDF7EDFFA468286905F1A4
:1029C0001803984203D0A969013113F06CFF2C2140
:1029D000284613F068FF002CEBD1019803AB984216
:1029E00003D00399013113F05EFF15B030BD00BF75
:1029F000549F01083C0000240C0B00240000000040
:102A000000232DE9F04F836000F1240A037385B0A1
:102A100080F82430D6B2836200F1040B436305468C
:102A200080F83C300364C36400F13C0301910096DC
:102A3000C0E9113300F10C03C0E90BAA4360FFF7B2
:102A400087FC0199584614F063F8AC6A2E77002C85
:102A500056D0D146D5E9018766694146BE42324625
:102A600028BF3A461AB1206914F0D8F900B9F01B12
:102A70000028D4E9022150DBA1461446002CEBD1FA
:102A8000CA453ED0D9F81440BC42224628BF3A4637
:102A90002AB14046D9F8101014F0C0F900B9381B1B
:102AA00000282EDB009B5846254903F1010899F8C0
:102AB000283008EB4808AB7703EB880808F1FF38AB
:102AC00085F81D8014F00AF958B3AB7FB0EE005BB7
:102AD0002A7F2846013B07EE102A06EE903AB8EE10
:102AE000C77BB8EEE66B9FED144BA6EE047B37EE8A
:102AF000457BB7EEC77B85ED007A05B0BDE8F08F6A
:102B0000D146494603AA05F12000CDF80CB0FFF7E5
:102B1000EFF82B7F81460093C4E70C46002C9BD135
:102B2000AEE79FED087A284685ED007A05B0BDE84E
:102B3000F08F00BFAFF30080F792C6681D55B53F18
:102B40002C9F0108000000002DE9F04F7C4C7D48CF
:102B50007D4E2DED028BB5B003F0CEF97B48217888
:102B600003F0CAF9B3682578002B00F0DD84043641
:102B700031461A699542D3E9024040F3E9810346A0
:102B8000002BF6D1B14200F0CF840B699D42C0F218
:102B9000CB846F4F1431384613F0BAFF6D4B9C68ED
:102BA000002C00F0C18403F10408D7E900A94646CF
:102BB00065694D452A4628BF4A4622B151462069DB
:102BC00014F02CF908B9A5EB09000028D4E9023269
:102BD000C0F2C48126461C46002CE9D1464500F0CF
:102BE000A38474694C45224628BF4A46002A00F057
:102BF000A4805046316914F011F9002800F09D803E
:102C00000028C0F2918406F128015348FDF702FE26
:102C1000524B9C68002C00F0878403F10408D7E92C
:102C2000009647466569B5422A4628BF324622B11A
:102C30004946206914F0F2F800B9A81B0028D4E92D
:102C40000232C0F2908127461C46002CEAD147454B
:102C500000F06A847C69B442224628BF3246002ACA
:102C600069D04846396914F0D9F8002863D00028A3
:102C7000C0F25A8407F128013948FDF7CBFD394CE1
:102C800000233949394AA4F1040A04F11C0B04F168
:102C900034091E460B601370CDF810A0002E7BD1B6
:102CA00003230122324D334933482B600A6003F07D
:102CB00023F92B68002B00F02E81022B00F07C8181
:102CC000012B00F06382032B00F040832B4D54F85E
:102CD000043C21462A482B6013F01AFF277E5946F0
:102CE000627EA37E27482F776A77AB77FEF7CAFC10
:102CF00049462548FEF71CFB5034244B01360BF1A6
:102D0000500B9C4209F15009C8D121481C1FDDF825
:102D100010A003F0F1F89AF81C200AF1500A5AF8B2
:102D20004C1C1C4803F0E8F85445F4D135B0BDEC18
:102D3000028BBDE8F08F301B99E7A9EB04005FE739
:102D400038000024749F0108FC070024889F0108B4
:102D5000CC07002414080024501500242C0800245B
:102D600044150024100B0024440A0024B90A00244E
:102D7000340A0024380A00249C9F0108680A0024B1
:102D80006C0A0024880A0024A00A002410150024DC
:102D9000F09F010800A0010814F070FF7C4A642134
:102DA0007C4D82FB0032C317C3EB621301FB13009F
:102DB00007EE900A95ED006BB8EEE77BB4EEC67BAC
:102DC000F1EE10FA40F181800023734D29A9734878
:102DD0004FF0040A2FAA2B601CAF23AD2C911A9739
:102DE0008DF8743022938DF88C308DF8A4302D93AB
:102DF0008DF8BC302195CDE91BA0CDE92A311AA868
:102E00006749CDE93032CDE9322313F067FF01463F
:102E1000002800F0AD800DF184081A98B84203D064
:102E20001C99013113F03FFD209B4146204644F898
:102E3000043C13F06DFE9DF89C709DF89D2028A920
:102E40009DF89E30584627766276A376FEF71AFCE8
:102E50002EA94846FEF76CFA309FAFB1B846F86825
:102E6000FDF792FFBF68D8F8140008F11C039842E0
:102E700004D0D8F81C10013113F015FD2C21404668
:102E800013F011FD002FE9D12A9FAFB1B846F868C1
:102E9000FDF780FDBF68D8F8100008F118039842CC
:102EA00004D0D8F81810013113F0FDFC2C21404655
:102EB00013F0F9FC002FE9D12198A8423FF41CAF90
:102EC0002399013113F0EFFC16E7364F0122D7E9C1
:102ED0000053D7E902011D442F4B28441A604518BE
:102EE00014F0CCFE3A46002190FBF5F303FB1500ED
:102EF00004E00131C01A042900F01B8352F8043B9E
:102F00008342F6DD284D2948296002F0F5FF2B6841
:102F1000002B7FF4D2AE264D2046294651F8043BC3
:102F200044F8043C13F0F4FD287F6A7F05F120018A
:102F3000AB7F207658466276A376FEF7A3FB484621
:102F400005F13801FEF7F4F91A4802F0D5FFBEE6A4
:102F500019462346002B7FF40CAE13E61446002CD2
:102F60007FF426AE3AE61446002C7FF45BAE6EE6A4
:102F70000DF1840803900A4B229A4046CDF800A038
:102F800013F02EFE0399ADF89CA08DF89E1044E737
:102F90001F85EB5130000024380A002472657374D9
:102FA0002C9F010814000024340A0024AC9F01085F
:102FB000680A0024BC9F01086F4F704D704802F0F2
:102FC0009BFF05F11E02D7E90001FDF78DFB3A6872
:102FD000297F801A03918310013B05D57B68013955
:102FE0009B1A03919B10013B52F823202B6C0692F5
:102FF000002B00F09C82DFF890C19646604619696C
:103000008E45D3E9022740F3B0803B46002BF6D132
:10301000604502D003699E4506DA06AB014620AA48
:1030200058482093FFF7F6F80DF1280AD0E90587F4
:10303000CDF820A018EB070F03D0B8F1000F00F077
:1030400085820F2F209700F22E82012F40F02782D9
:1030500098F8003052468DF8283000230997D35550
:1030600010AB0E93DDE90837FB4202D0002B00F0D5
:103070006D820F2F209700F2FB81012F40F0E2813B
:103080001B780DF1400C0DF180088DF840300EAB2F
:1030900008EE103A00230F97039A18EE101A0CF856
:1030A00007304046FFF7ACFC0E9810AB984203D0B7
:1030B0001099013113F0F7FB209B21A9204644F819
:1030C000043C13F025FD9DF89C3028A95846237632
:1030D0009DF89D3063769DF89E30A376FEF7D2FA78
:1030E0002EA94846FEF724F9309FAFB1B846F868DC
:1030F000FDF74AFEBF68D8F8140008F11C03984297
:1031000004D0D8F81C10013113F0CDFB2C2140461F
:1031100013F0C9FB002FE9D12A9FAFB1B846F86878
:10312000FDF738FCBF68D8F8100008F11803984282
:1031300004D0D8F81810013113F0B5FB2C2140460B
:1031400013F0B1FB002FE9D1219823AB984203D0B3
:103150002399013113F0A7FB089850453FF4B7AD10
:103160000A99013113F09FFBB1E518461346002B75
:103170007FF445AF4CE700BF50150024680A0024D7
:10318000D09F0108A00A0024A40A0024B24FB34D26
:10319000B34802F0B1FE05F11E02D7E90001FDF7C8
:1031A000A3FA95F81CA0D7E90031C01AC91A8210F9
:1031B0000132B2EBA10F80F23B81043003441A6864
:1031C0002B6C0792002B00F03B81DFF8A0C29646E3
:1031D000614618698645D3E9022740F3B1803B4632
:1031E000002BF6D1614502D00B699E4506DA07AB8C
:1031F00020AA9C482093FFF70DF8014616ABD1E9B1
:103200000587149318EB070F03D0B8F1000F00F0F7
:103210009D810F2F209700F27881012F40F072815D
:1032200098F800308DF8583016AB00221597DA5513
:103230001CAF149B1A971A460393159BDA4202D0CF
:10324000002A00F083810F2B209300F24481012B90
:1032500040F03881039ABC460DF1800812788DF851
:1032600070201AAA08EE102A4FF0000E1B93524647
:1032700018EE101A40460CF803E0FFF7C1FB1A984D
:10328000B84203D01C99013113F00DFB209B21A9FA
:10329000204644F8043C13F03BFC9DF89C3028A9E0
:1032A000584623769DF89D3063769DF89E30A37630
:1032B000FEF7E8F92EA94846FEF73AF8309FAFB17D
:1032C000B846F868FDF760FDBF68D8F8140008F14B
:1032D0001C03984204D0D8F81C10013113F0E3FA13
:1032E0002C21404613F0DFFA002FE9D12A9FAFB11D
:1032F000B846F868FDF74EFBBF68D8F8100008F133
:103300001803984204D0D8F81810013113F0CBFA02
:103310002C21404613F0C7FA002FE9D1219823ABA6
:10332000984203D02399013113F0BDFA149816ABDB
:1033300098423FF4CCAC1699013113F0B4FAC6E4CC
:1033400019461346002B7FF444AF4BE746480DF176
:10335000840802F0D1FD20A8FFF70EFA209B414619
:10336000204644F8043C13F0D3FB9DF89C303B4DC1
:1033700028A9237658469DF89D3063769DF89E30A7
:10338000A376FEF77FF92EA94846FDF7D1FF284620
:10339000209B414640F8043B13F0BAFB9DF89E3059
:1033A00028A905F12000AB77BDF89C30AB83FEF770
:1033B00069F92EA905F13800FDF7BAFF309FAFB1CA
:1033C000B846F868FDF7E0FCBF68D8F8140008F1CB
:1033D0001C03984204D0D8F81C10013113F063FA92
:1033E0002C21404613F05FFA002FE9D12A9FAFB19C
:1033F000B846F868FDF7CEFABF68D8F8100008F1B3
:103400001803984204D0D8F81810013113F04BFA81
:103410002C21404613F047FA002FE9D1219823AB25
:1034200098423FF454AC2399013113F03CFA4EE436
:103430001A680AF1010A2B6C0792002B7FF4C5AEC3
:103440000A49D4E6002F7AD10EAB0DF1400C0DF1F4
:10345000800808EE103A1DE650150024680A002482
:10346000E09F0108A00A00249C9F0108A40A0024F0
:1034700005930DF180080EAB00224146184608EE78
:10348000103A13F0EBFA209A059B0E9010923A46F0
:10349000194613F0D3FC209FDDF838C0FAE5002F61
:1034A00060D15246D9E5002220A908A813F0D6FA27
:1034B000209B08900A933A46414613F0BFFC209F98
:1034C000089ACAE5002B46D11AAABC460DF180081D
:1034D00008EE102AC8E605930DF180081AAB002209
:1034E0004146184608EE103A13F0B8FA209A059BA8
:1034F0001A901C921A46039913F0A0FC209BDDF849
:1035000068C0B1E62FBB16AB8FE6002220A914A835
:1035100013F0A4FA209B149016933A46414613F0F8
:103520008DFC209F149B80E60F4813F08BFA0F4808
:1035300073E50F4B15210F4A0F4813F0F5FB0EAA48
:1035400010A80DF1800808EE102AA0E70B4813F030
:1035500073FA16A8E1E71AAA38460DF1800808EEBA
:10356000102AC7E75046A6E7249F0108A40A0024B2
:103570009C9E0108C49E0108E49E0108709E0108FB
:103580002DE9F04FA64CA74D2DED028B94F800A02D
:103590009BB00AEB8A0809AE4FEA8A0905EB0818C6
:1035A0000796D8E901B3D8F800201BEB030F069269
:1035B00003D0BBF1000F00F0FE810F2B059300F24A
:1035C000F280012B40F0CF809BF80020304607AFFF
:1035D0008DF8242009EB0A020021089305EB021262
:1035E000C1548DF83C10937F109113910FA98DF861
:1035F0003630D8F82800CDE91111938BADF834306E
:1036000088B1FDF735FB03461A469B68002BFBD1BA
:10361000034611921A46DB68002BFBD1D8F83430F0
:10362000129210901393002315A9D8F840008DF83A
:10363000543016931993CDE9171188B1FDF78CFA20
:1036400003461A469B68002BFBD1034617921A4685
:10365000DB68002BFBD1D8F84C30189216901993E8
:103660002378714803EB830305EB031393ED007A92
:10367000B7EEC77A8DED007B59681A7F02F03CFCEB
:103680006A49384613F02AFB002879D12378002BA9
:103690006FD1674DB0EE087A664BB0EE008A2A789B
:1036A000022193ED006A07EE902A6348F8EEE77A6C
:1036B000C7EE866AA6EE878AB0EE480A01F03AFAAB
:1036C000B7EEC87A29785D4853EC172B02F014FC4A
:1036D00023785B4A01331268DBB2934223700ADB22
:1036E000584B1B78002B70D1574B1B78002B40F0A8
:1036F000B58000232370169C9CB12546E068FDF739
:1037000043FBA468686905F11C03984203D0E9698A
:10371000013113F0C8F82C21284613F0C4F8002C0E
:10372000EBD1109C9CB12546E068FDF733F9A46805
:10373000286905F11803984203D0A969013113F0F3
:10374000B2F82C21284613F0AEF8002CEBD10798E4
:10375000B04203D00999013113F0A5F81BB0BDECBC
:10376000028BBDE8F08F304607AF002B3FF432AF3D
:1037700024E09FED360A02212F4801F0DBF9A7E78C
:10378000237801212C4803EB830305EB031595ED0A
:10379000000A01F0CFF92E4B012200211A740022F9
:1037A0005960DA6072E707AF002205A90393384633
:1037B00013F054F9059A039B079009921A4659464B
:1037C00013F03CFB059B079804E7194D2B78013358
:1037D0002B7014F053FA2B78164A07EE903A1D4BD3
:1037E00092ED006AF8EE677A83FB0032C317DFEDD3
:1037F0001A6A87EE867AC3EB6213642202FB130017
:1038000007EE900AF8EEE77A27EE267AF4EEC77A0A
:10381000F1EE10FA7FF568AFFFF796F969E700BFA0
:10382000600800240C0B00240CA001082C9F010848
:10383000B90A0024280000246408002430A00108EC
:103840003C000024040000240E00002400000000BE
:10385000480A00241F85EB5100004842574D14F0E0
:103860000DFA642785FB0032C317C3EB621307FB15
:103870001300534B07EE900A93ED007AF8EEE77AC7
:10388000F4EEC77AF1EE10FA3DD54E4B1B78002BC3
:1038900053D14D4B1B7823BB14F0F0F985FB003559
:1038A000C317C3EB651307FB130031285BDC474DDF
:1038B000474F2B783A685B424648934263DB02F0FD
:1038C0001BFB3B68444A0133127893423FF711AF28
:1038D0002A7852429342FFF60CAF0120FEF794FA89
:1038E00007E73C4802F008FB394B3B4A1B6812785B
:1038F000013393423FF7FDAE344A1278524293426D
:10390000FFF6F7AEE9E714F0B9F985FB0035C31708
:10391000C3EB6515314B07FB150093ED007A07EEFD
:10392000900AF8EEE77AF4EEC77AF1EE10FA7FF536
:10393000E0AE0120FEF7F8FFDBE6264802F0DCFAF5
:10394000234B254A1B681278013B93423FF7D1AEC7
:103950001E4A127852429342FFF6CBAE4FF0FF3030
:10396000FEF752FAC5E61C4D194F2A783B681948F4
:103970009A4217DC02F0C0FA3B682A78013B934276
:103980003FF7B7AEE4E702F0B7FA3B68124A013BF3
:10399000127893423FF7ADAE2A7852429342FFF637
:1039A000A8AEDBE702F0A8FA3B682A78013393421D
:1039B0003FF79FAEA0E70A4813F03EF81F85EB5192
:1039C0002400002461080024411500240C00002478
:1039D000440A0024349F01080D0000241000002434
:1039E000709E0108000000002DE98048002085B08D
:1039F00014F0D6F99FEDB18A14F012F9B04800F036
:103A00003FFF002002F086FAAD4801F07BF8AD4997
:103A1000AB4801F073F8AC4BB0EE480AAB481A78EB
:103A20005978DFF8DC9242EA0121A94F02F0A8FAA6
:103A3000A84BB0EE480A48461A785978A64C42EA94
:103A40000121DFF8ECA202F09BFAA44802F054FA3C
:103A5000B1EE040A02219A4801F06CF8984801F08E
:103A600055F8974801F05EF8984802F0A3FA4846E6
:103A700002F0A0FA4BF6803200234FF07A513A6000
:103A800099F80A207B60FF2A3B74B96008BF0123C4
:103A90009349944A0B708A48029100211370039253
:103AA00087ED038A01F040F8DFED8F7A0221844828
:103AB00020EE270AFAFE407AFDEEE77AC4ED007A9E
:103AC00001F032F8DAED057AB7EE005BB8EEE76B9D
:103AD00085EE067BB7EEC77BC0EE077AFAFE677A03
:103AE000FDEEE77A17EE903A13F0FF0300F05C81E9
:103AF0007E4A019213700121714801F015F89FED83
:103B00007C7A22684FF4A073A0EE477A6F4EDFF8FC
:103B100024B2DFF82482774D93FBF2F3B7EEC77A35
:103B200006EE903A744BF8EEE66A83ED007B734B39
:103B3000C3ED006AFFF708F8614800F0E7FF60484E
:103B400000F0F0FF614802F035FA6D4802F032FAF9
:103B500033791BB1B37A7F2B00F0A98099F80A3032
:103B60000021039AFF2B56480CBF0123002313703A
:103B7000029A137000F0D8FFDFED5B7A0221504803
:103B800020EE270ABAFE400ABDEEC00A84ED000A04
:103B900000F0CAFFDAED057AB7EE005B019A012169
:103BA000B8EEE76B464885EE067BB7EEC77BC0EE06
:103BB000077AFAFE677AFDEEE77A17EE903A13F08D
:103BC000FF0308BF0123137000F0AEFF9FED487A9A
:103BD000494BA0EE477A22684A48397CB7EEC77A4B
:103BE00083ED007B4FF4A07393FBF2F307EE903A62
:103BF000424BF8EEE77AC3ED007A03F0C7F842488B
:103C000002F0EAF8F0B92E4B404893F8BD319BB171
:103C100003F0AEF8B0FA80F35B09184688F800307C
:103C200040B12A7832B93A4802F066F9FEF78CFFC3
:103C300098F800302B707FE703F09AF8031E18BF46
:103C40000123EBE704F02EFA324B07EE900A324ADA
:103C50003249B8EE677B93ED006B82ED007B83ED1C
:103C6000007B37EE466B2E4B0A6883ED006B01320A
:103C7000DBF80030022A03F101030A60CBF80030C0
:103C80005CDCF4EE007A274AB0EE670AC2ED007AF7
:103C9000062B87ED020A07DD002300222249CBF81C
:103CA00000300023C1E90023FFF76AFCABE71F489F
:103CB00002F022F9FEF748FF50E700BF00000000C5
:103CC00064080024D5080008F4A001084408002472
:103CD000480A0024F8A001083C0000244CA0010878
:103CE000040000240E0000240000004238000024DC
:103CF0000000C842B80A0024300000242800002434
:103D00000C150024220A0024140A00241B0A002493
:103D100070A00108600A002458080024400A00240A
:103D200020150024080000242815002460A00108A4
:103D3000FC0700243C0A00244015002407EE903ABA
:103D40001F4B03211F48B8EEE77B93ED005B9FED0F
:103D50001A4B36EE056B86EE075B83ED006B1A4B54
:103D600085EE047B83ED005B184B83ED007B00F058
:103D7000DBFE164BB7EEC00ADFED157A93ED006B54
:103D8000144B20EE060BB7EEC00BB4EEE70A83ED42
:103D9000000AF1EE10FA04D5B0EE670A0D4BC3ED40
:103DA000007ADBF8003073E70B4B1A4601930123CE
:103DB0001370A0E6AFF300800000000000408F40C9
:103DC0002815002464080024301500243815002428
:103DD0000AD7233C08000024380000242DE9F04FC6
:103DE0008C6883B08B4681460192A4B3019BD3E9D2
:103DF00000A800E014466669454627695046B0456C
:103E0000394628BF35462A4615B113F007F808B9D8
:103E1000A8EB06000028D4E90212AEBF00210A4632
:103E20000121002AE6D1B9B9A3468DB12A465146EF
:103E3000384612F0F3FF58B100284FF0000348460F
:103E4000B4BFC9E9003BC9E9004303B0BDE8F08F46
:103E5000A6EB0800F0E70C1DDBF80C30A3420ED0F7
:103E60002046A34612F088FD019B0446D0E9047663
:103E7000D3E900A83546464528BF4546D5E7002387
:103E80004846C9E9003403B0BDE8F08F2DE9F04F92
:103E90001F460B1D83B00E469A4205464DD0144670
:103EA000D7E900B8D2E90419C246C84528BFCA46B6
:103EB000BAF1000F1CD052465846019112F0AEFFE5
:103EC0000028019902D1A8EB0903002B14DB084656
:103ED0005246594612F0A2FF08B9A9EB0800002883
:103EE00050DB0023C5E90043284603B0BDE8F08F4E
:103EF000A8EB0903002BF0DAF368A34217D02046A1
:103F000012F03AFDD0F814A08146C245524628BFAF
:103F1000424622B15946006912F080FF08B9AAEB67
:103F20000800002825DAD9F80C30002B4BD02846A1
:103F3000C5E9004403B0BDE8F08F4B69CBB10C6913
:103F4000D7F80480D4F81490C1454A4628BF4246A9
:103F500022B13968206912F061FF08B9A9EB0800A5
:103F6000002806DA00232846C5E9003403B0BDE87E
:103F7000F08F28463A463146FFF730FF284603B017
:103F8000BDE8F08F3369A342ECD0204612F0F2FC7A
:103F9000D0F814A08146C245524628BF424662B1BD
:103FA0005846D9F8101012F039FF30B10028E0DA85
:103FB000E3682BB1C5E9009996E7A8EB0A00F5E79D
:103FC000C5E9003490E7C5E900398DE7914200F07A
:103FD00094802DE9F04F0D4687B09246804600F15F
:103FE00004092AE0484B9B4500F28B80584612F0AA
:103FF0005CFC0346D5E9061CACEB010203EB0B00AD
:104000008C452063C4E90A3305D01846019212F0AA
:1040100023FF019A034603EB020C21464B463A4626
:104020003046C4F82CC012F0A9FCD8F81430013383
:10403000C8F814302435AA455CD02B464A46414680
:1040400004A8FFF723FF059F002FF3D0A9EB070675
:10405000049BB6FA86F67609002B18BF46F00106D7
:10406000002E38D0342012F020FC04461830D5E958
:1040700000B320611BEB030F02D0BBF1000F3DD05A
:104080000F2B039315D8012B10D19BF8002022761B
:1040900000226361C2542263D5E9061CC4E90A22E6
:1040A000BCEB010B9ED15A465B46A7E7002BEFD035
:1040B0000AE0002203A904F11000019312F0CEFCE3
:1040C000039A019B2061A2611A46594612F0B6FE7E
:1040D000039B2069DCE76E687C693246A64228BFF4
:1040E000224622B13969286812F098FE00B9301BC7
:1040F000C60FB7E707B0BDE8F08F7047034812F06E
:104100009BFC12F096FC00BFFCFFFF7F709E010835
:104110002DE9F04FADF50F7D0123C24959A8589301
:10412000FCF746FB0223C04960A85F93FCF740FB05
:104130000323BE4967A858AC6693FCF739FB0423F8
:10414000BB496EA882AD6D93FCF732FB0523B949DC
:1041500075A87493FCF72CFB0623B7497CA87B93C6
:10416000FCF726FBB54800232146021D037183603E
:104170004361C0E903222A46FDF7D8FF1C3D281DF4
:1041800012F08EFCA542F9D1AD4D4FF00709AD4AB2
:104190000DF14808AC490DF1700BA84810AF12F0B2
:1041A0007DFB0DF5A27C0DF1780ECDF87C90CDF85D
:1041B00078C00EAE4FF0050A0FCDACE80F0095E8C1
:1041C000070043468CE807009EE806002FA8FDF78D
:1041D000D5FA2FAA93492046FDF7FEFA05F10C0EF9
:1041E0000DF5947CBEE80F00CDE91CC9ACE80F00CA
:1041F0009EE807003B468CE807009BE806002CA8D9
:104200000DF1680BFDF7BAFA2CAA874961A8FDF7F2
:104210001DFB05F1280E0DF5867CBEE80F00CDE9EB
:104220001AC9ACE80F009EE8070033468CE8070087
:104230009BE8060029A80DF1600BFDF79FFA29AA5B
:104240007A496AA8FDF73CFB37AB05F1440E9C4662
:10425000CDE9183ABEE80F00ACE80F00DEF80030F8
:1042600026A8CCF800300CAB9BE80600FDF786FAD8
:1042700026AA6F4973A8FDF75DFB32AB05F1580C18
:10428000CDF85CA016939A460DF1580E6C35BCE83B
:104290000F00AAE80F00DCF8003023A89EE8060013
:1042A000CAF800300AABFDF769FA23AA61497CA875
:1042B000FDF740FB0DF1F00C0DF1500ECDF85490D0
:1042C000CDF850C00FCDACE80F0095E8070008AB63
:1042D0008EAD8CE807009EE8060020A8FDF74EFA98
:1042E00020AA554985A8FDF75FFB584800238EAAF0
:1042F0002146037183604361031DC0E90333FFF767
:1043000065FE243D05F11800FDF7F0FB284612F08C
:10431000C7FBA542F5D120A84D4DFDF7E7FB23A82B
:10432000FDF7E4FB26A8FDF7E1FB29A8FDF7DEFB7E
:104330002CA8FDF7DBFB2FA8FDF7D8FB414A454928
:104340004FF0070941484FF0050A12F0A7FA51ABA8
:10435000C8F80490C8F800309C460FCDACE80F00B8
:1043600095E8070007AB8CE8070098E806002FA83F
:10437000FDF704FA2FAA2B492046FDF72DFA4AAB88
:10438000A5F1100EC7F804903B609C46BEE80F00F4
:10439000ACE80F0095E8070006AB8CE8070097E84B
:1043A00006002CA8FDF7EAF92CAA1F4961A8FDF721
:1043B0004DFA43ABA5F1100CC6F8049033601F46CC
:1043C000BCE80F000FC795E8070005AB87E80700BA
:1043D00096E8060029A805F10C07FDF7CFF929AAF0
:1043E00012496AA8FDF76CFA37ABCDF834A00C93EC
:1043F0001E460FCF0FC63B680CAA26A805F1200762
:10440000336004AB06CAFDF7B9F926AA084973A8B8
:10441000FDF790FA32ABCDF82CA00A931E460FCFD1
:104420000FC619E088A0010890A00108A0A001080B
:10443000B0A00108C4A00108D8A00108FC0700240E
:10444000489D010800000024D10F00081408002432
:10445000E09D0108850900083B680AAA23A8A5F188
:104460001007336003AB06CAFDF788F923AABA49DF
:104470007CA8FDF75FFA3CABCDF8249008931E466C
:104480000FCF0FC695E8070086E8070008AA02AB21
:1044900020A88EAD06CAFDF771F920AAAF4985A8FC
:1044A000FDF782FAAE4800238EAA2146037183608D
:1044B0004361031DC0E90333FFF788FD243D05F187
:1044C0001800FDF713FB284612F0EAFAA542F5D1D1
:1044D00020A8A44DFDF70AFB23A8FDF707FB26A89B
:1044E000FDF704FB29A8FDF701FB2CA8FDF7FEFA58
:1044F0002FA8FDF7FBFA9C4A9C4905F520689848CF
:1045000012F0CCF99A480023974A9A4903628362D1
:10451000C0E9033312F0C2F91AE0AB7FB0EE005BE2
:104520002A7F013B07EE102A06EE903A2B46B8EEA2
:10453000C77B5035B8EEE66B45459FED854BA6EE43
:10454000047B37EE457BB7EEC77B83ED007A37D02F
:10455000002205F124012E1D05F13C0705F10C0098
:104560004FF0040E4FF0010C4FF00209824BCDF8D2
:10457000009029632A7385F824206A6385F83C201B
:1045800085F81CE085F81EC0C5E90102C5E90A21CD
:1045900030461146C5E91027C5E9127212F020FB1A
:1045A0003C23764930466B7712F098FB0028B4D153
:1045B0002B4650359FED727A454583ED007AC7D181
:1045C000704D0020684A704912F068F928466F491A
:1045D000FCF7EEF8644A6E49284612F05FF96D491F
:1045E0006D48FCF7E5F8604A69496B4812F056F9E6
:1045F0005AA8D5E900655890EE4202D0002E00F08E
:10460000A4800F2D519500F29380012D40F08980F8
:1046100033788DF86831519B002558995F4A59933A
:104620005F48CD5421461278FEF7EAF9204612F091
:1046300037FA4D4A5B495A4812F030F956495A4800
:10464000FDF7ECF901465948FDF724FA464A584966
:10465000564812F023F950494148564CFDF7DEF90F
:1046600001465548FDF716FA3F4A5149524812F0A3
:1046700015F904F1240204F13C0304F10C01A560D6
:10468000201D61600421A364257384F8245084F8FC
:104690003C50E564C4E90A52C4E90C25C4E910534E
:1046A000012202230093344B21772946A2772A4620
:1046B00012F096FA3C233149201D637712F00EFB6D
:1046C000002832D0A37FB0EE005B227F013B07EED3
:1046D000102A06EE903AB8EEC77BB8EEE66B9FED77
:1046E0001C4BA6EE047B37EE457BB7EEC77B1E4A1C
:1046F0002C49304884ED007A12F0D0F81A4A2F493C
:104700002F4812F0CBF8184A2C492E4812F0C6F860
:10471000154A2D492D480DF50F7DBDE8F04F12F0DB
:10472000BDB8002D3FF477AF0AE09FED157ADEE7C4
:10473000002251A9204612F091F9519B58905A93AA
:104740002A46314612F07AFB65E7214812F074F9E7
:10475000F792C6681D55B53FC4A00108D8A001084E
:104760002C0800240C0B00240000002485090008FC
:1047700064080024E1060008E4A001082C9F010859
:1047800000000000E40700244D0F0008E8A0010825
:10479000D56B010888A00108CC070024050000247F
:1047A000BC0A002405100008140800245015002439
:1047B00031090008680A002444150024DD060008B9
:1047C000440800240C150024E5060008480A0024CB
:1047D000709E0108FFF79CBC00294ED0274BF0B516
:1047E000D0E90024481E03F10C0E951C03F1100CB7
:1047F0004E00AC4218BF052802EB41058CBF0120DA
:104800000020624538BFAE452CBF01270027384243
:1048100027D02644644538BFB64522D39D8900265B
:10482000D8894FEA510E65F30F06A44602EB8E0EAF
:1048300065F31F46002560F30F0560F31F45104622
:1048400040F8046B70454CF8045BF9D121F001008D
:10485000C90705D5998922F81010DB8924F8103092
:10486000F0BD023A023C023D998922F8021FAA4299
:10487000D98924F8021FF7D1F0BD70475C150024D8
:104880002DE9F04140F201138E4A012506462DED37
:10489000028BD8B0C0F8CC21ADF8143000230495B9
:1048A0008DF8163003F070FD002840F0FA80304695
:1048B00004A903F0C5FC06F1080000F093FA824950
:1048C0000DF19408814B06F10C00814ACDE92513C6
:1048D000012341462792ADF8A03002F045FE0322A5
:1048E000012300241AA902A806F110051A9414AF96
:1048F0000294CDE91E2300220123CDE920230122C9
:104900000023CDE92223734B1B9303F1007303F5BE
:1049100040731C934FF44173ADF8743003F0A4F965
:1049200001230AA903A80D940A930C93102303945E
:104930008DF83830684B0B9302F0A8FB039906F111
:10494000200000F04DF94FF07E533021029A089379
:10495000284609930323CDE9061306A901F032F98D
:10496000284601F06BF92846B0EE408A01F062F962
:10497000D0ED007ABC46DFF880E14546F8EE677A74
:10498000BEE80F0088EE277AACE80F009EE803002F
:104990008CE8030086ED727A37F81410013428464B
:1049A000113501F0D9FB0C2CF6D106F11407224683
:1049B00004234146384606F1300500249FED478A1E
:1049C00001F0D8FB09E001F0CFFD96ED720A014637
:1049D0002846013401F09CF92035072CE1B2384615
:1049E000F1D9E1B2013401F0BFFD00230146F0EE40
:1049F000480A28461A4696ED720A01F057F90C2C1F
:104A0000EAD1374B012430461B88F48520F82C3F2F
:104A100002F0D2F82246334906F5D87001F0D2F9F7
:104A20002246314906F2B71001F0CCF92F4B06F5BA
:104A3000DF70A6F8C0411B88A6F8BE3102F0BCF8B2
:104A40002B4B06F5E170A6F8C4411B88A6F8C231CD
:104A500002F0B2F80223D6F8CC010FA9109300237C
:104A6000103013934BF68033CDE911440F9301F0CE
:104A7000CFFF384601F062FDD6F8CC41237D04F12A
:104A80001005DBB928461B4D2368D4E901120095B7
:104A900002F03CF80123237558B0BDEC028BBDE851
:104AA000F081044604A930468DF8165003F0C8FB87
:104AB000072C7FF404AF0DF1940810E7284602F0AC
:104AC0005BF8DFE75C150024050805090507050606
:104AD000050A060604020404010A010B6F12033BD7
:104AE00004A1010800A10108FCA00108F0A0010830
:104AF000ECA00108D9470008249E0108103001F0FD
:104B0000A1B800BF143001F019BD00BF38B500F1E5
:104B1000300400F5D8752046203401F02FF9AC425E
:104B2000F9D138BD704700BF00EB411191ED0F0A7C
:104B3000704700BF0129D0F8CC211CD931F0020107
:104B40000DD19FED1B7ADFED1B7A20EE070AB4EE44
:104B5000E70AF1EE10FA03DD40F6FF71D1817047EC
:104B6000B5EEC00AF1EE10FAF8D4BCEEC00A10EEB1
:104B7000103A99B2F2E7DFED0E7A9FED0E7A60EE11
:104B8000277AF4EEC77AF1EE10FA0ADCF5EEC07A75
:104B9000F1EE10FA09D4FCEEE77A17EE903A9BB2E8
:104BA00001E040F6FF739381C8E70023FBE700BFF5
:104BB00000C04C4400F07F4507490022074B01F13B
:104BC000600010B4302459601A611C601A755DF8D9
:104BD000044BC3E902027047000000305C1500245A
:104BE000F0B58C2387B00160002203710124FA26FE
:104BF000194605AB8DF814200296402200932346F7
:104C00000194054602F0D8FA002840F09B809DF8F8
:104C100014300DF117074022284603F07F03009758
:104C2000CDE901468DF814308DF8173023462979E7
:104C300002F0E8FA002840F08580042003F034FAFE
:104C400005AB4022284600932346CDE90146297949
:104C500002F0B2FA002875D19DF814304022009776
:104C6000284603F0BF03CDE901468DF814308DF8D6
:104C700017302346297902F0C5FA002862D10420B2
:104C800003F012FA0DF11503432228460093234640
:104C9000CDE90146297902F08FFA002852D10DF1B1
:104CA00016034822284600932346CDE90146297978
:104CB00002F082FA002845D19DF815304322009772
:104CC000284643F001038DF815308DF817309DF814
:104CD000163043F00103CDE901468DF81630234626
:104CE000297902F08FFA68BB9DF8163048220097A8
:104CF00028468DF817302346CDE90146297902F080
:104D000081FAF8B905AB4022284600932346CDE945
:104D10000146297902F050FAA0B99DF814202346E3
:104D20000194284602F0CF04029600974022297988
:104D30008DF814408DF8174002F064FA003818BF5F
:104D4000012000E0012007B0F0BD00BFF0B5102346
:104D500087B0234C012200250126002702A9204606
:104D60000195CDE902234FF48052CDE904670BF0A1
:104D700041F9642004F046F902A94FF4805220461C
:104D8000CDE9046702261027CDE902670BF032F95E
:104D90000322102302A92046CDE902230023042286
:104DA000CDE904234FF480520BF024F940F2322372
:104DB000042202A9019310232046CDE90223019A7F
:104DC000012305924FF4805204930BF013F940F63F
:104DD000060120460BF02EF9284607B0F0BD00BFB3
:104DE0007C1500241C4B00221C494FF0400C30B5B0
:104DF000054689B00220596007219A601A62012491
:104E0000DA620A224FF4006EDC6006922022CDE9BD
:104E1000000104200821CDE9020103201021CDE981
:104E2000040108206946C3E904024FF4C072181D4A
:104E3000C3E906C24FF48052C3E909E20BF0B0F8AF
:104E400038B92846FFF782FF003818BF012009B0A3
:104E500030BD204609B030BD7815002440410052D5
:104E6000614A0021D0B513688EB00A91002B40F042
:104E7000B9805E4B01214FF683700C241160022132
:104E8000D3F8D4200026032742F48052C3F8D4205C
:104E9000D3F8D42002F480520092009AD3F8E02094
:104EA00042F01002C3F8E020D3F8E02002F0100234
:104EB0000192019AD3F8E02042F04002C3F8E020CA
:104EC000D3F8E02002F040020292029AD3F8E020E8
:104ED00042F00802C3F8E020D3F8E02002F0080214
:104EE0000392039AD3F8E02042F48072C3F8E020E2
:104EF000D3F8E02002F480720492049AD3F8E02000
:104F000042F08002C3F8E020D3F8E02002F08002F3
:104F10000592059AD3F8E02042F02002C3F8E02081
:104F2000D3F8E02002F020020692069AD3F8E0209F
:104F300042F00402C3F8E020D3F8E0300C9403F010
:104F4000040307930323079A0B93CDE9080108A9EB
:104F5000274806F0C3F948F23712022308A925486A
:104F60000C94CDE90823CDE90A6706F0B7F94CF2B5
:104F70000372022308A920480C94CDE90823CDE947
:104F80000A6706F0ABF940F2FF62022308A91B484A
:104F90000C94CDE90823CDE90A6706F09FF94FF696
:104FA0000C72022308A916480C94CDE90823CDE918
:104FB0000A6706F093F94FF63F02022308A9114849
:104FC0000C94CDE90823CDE90A6706F087F9202281
:104FD000022308A90A480C94CDE90A67CDE9082301
:104FE00006F07CF90EB0D0BD7415002400440258C0
:104FF0000010025800180258000C025800200258F5
:10500000001C0258001402582DE9F04FDFF81084FC
:1050100006460D46144608F118002DED028B89B0A6
:1050200000AF02F019FFD8F8183073B3D8F81C306D
:10503000D8F80490002B43690BBF4FF0080A4FF0DB
:10504000100A4FF0020B4FF0040BB9F1000F2AD0F9
:10505000A200EA46012B02F1070222F00702ADEBA3
:10506000020D6846ADEB020D694600F03F81022B50
:1050700000F0D680002B6FD02246C847D546243793
:10508000BD46BDEC028BBDE8F08FD8F81C30002B7C
:10509000F5D0D8F804904FF0080A4FF0020B43699E
:1050A000B9F1000FD4D1FB61D8F80030BB61002BFF
:1050B000E5D0D54802F042FF6B46BBF1020F7861A4
:1050C00008EE103AFB6900F083816A465146A2EB74
:1050D000C40295466200EA46B2FBFBF2AAEBC400AA
:1050E00085460AEB8200EE46F861ADEB010DF869EA
:1050F0000EEB820CC7F810C0EC46ADEB010D00EBD7
:105100008201CCF80400CCF8081001EB8201386968
:10511000E946CCF80C1000EB8201CCF800A001EBC2
:105120008202C9E900E0C9E90212012B00F06483A0
:10513000022B00F06C82002B00F08081620849464F
:105140006046BB69984718EE103A24379D46BD4625
:10515000BDEC028BBDE8F08F002C8DD01A46D8ED47
:105160000C6A9FEDB27A8446331D36F922E00CF1C9
:10517000080C07EE90EA33F922E00232F8EEE77A03
:10518000944267EE877A67EEA67A4CED027A07EED4
:1051900090EAF8EEE77A67EE877A67EEA67A4CED4A
:1051A000017AE2D8F9612246C847984ED8ED0D6AD7
:1051B0000020F9692B1D9FED9E7A9FED9E6ADFED21
:1051C0009E5A22E0F4EEC67AF1EE10FAC0F2C884DC
:1051D00047F6FE72D1ED017A45F8202066EEA77AF7
:1051E000F4EEC77AF1EE10FA40F2F080F4EEC67AEF
:1051F000F1EE10FAC0F2D58447F6FE7243F8202093
:105200000230083184427FF639AFD1ED007A66EE84
:10521000A77AF4EEC77AF1EE10FAD3D83246D9E77E
:10522000002C3FF429AFD8ED0C6A84469FED787AC4
:105230000022331D8E4656F822100CF1080C07EEA2
:10524000901A53F822100232F8EEE77A944267EE91
:10525000877A67EEA67A4CED027A07EE901AF8EE9E
:10526000E77A67EE877A67EEA67A4CED017AE2D8A4
:1052700071462246C7F81CE0C847664ED8ED0D6A55
:105280000020F9692B1D9FED6A7A9FED6A6ADFF8AD
:1052900094C120E0F4EEC67AF1EE10FAC0F27984FF
:1052A0003246D1ED017A45F8202066EEA77AF4EE79
:1052B000C77AF1EE10FA40F28780F4EEC67AF1EE8A
:1052C00010FAC0F25E84324643F8202002300831E2
:1052D00084427FF6D3AED1ED007A66EEA77AF4EE83
:1052E000C77AF1EE10FAD5D86246DAE7002C3FF41F
:1052F000C3AED8ED0C6A86469FED477A4FF0000C9E
:10530000331D56F82C200EF1080E82F40002A2F58F
:10531000000207EE902A53F82C200CF1020CF8EE54
:10532000E77A82F400026445A2F5000267EE877A0C
:1053300067EEA67A4EED027A07EE902AF8EEE77A4B
:1053400067EE877A67EEA67A4EED017AD9D8F961D1
:105350002246C847314ED8ED0D6A0020F9692B1D51
:105360009FED337A9FED336ADFF8BCC01FE0F4EEA7
:10537000C67AF1EE10FAC0F2FC833246D1ED017A22
:1053800045F8202066EEA77AF4EEC77AF1EE10FA1F
:1053900018D9F4EEC67AF1EE10FAC0F2DA8332468A
:1053A00043F820200230083184427FF667AED1ED09
:1053B000007A66EEA77AF4EEC77AF1EE10FAD6D844
:1053C0006246DBE76246EBE762467DE7324615E779
:1053D000A100D6466208073121F00701ADEB010DAF
:1053E000EA46ADEB010D6946ADEB0E0D0AEB82000E
:1053F000EC46ADEB0E0D01EB8202F861E946CCE91B
:1054000000A0C9E9001290E6CC1500240280FFFF3D
:10541000000000300082FF7F0000003482FF7F0028
:10542000B0150024007E00807E0080FF0000003860
:1054300004FF7FBF04FF7F3F00FEFF46002C00F00B
:10544000C982BBF1020FD8F8242000F0FA827969F2
:10545000C7F8049002EB810E5FED0C5A8A00DCF86D
:1054600008100EF104007A611A46DCF80C303B613A
:10547000331DD7F810903D61FD69C7E902CB8C461A
:10548000834636F92210D8ED0C7A06EE101A33F95D
:10549000221006EE901A3EF92210B8EEC66A07EE08
:1054A000101AF8EEE66A3BF92210B8EEC77A26EE3B
:1054B000256A66EEA56A27EE257A26EE276A66EE4D
:1054C000A76A27EE277A07EE901A51080232F8EE03
:1054D000E77A0AEB8100944280ED006A05EB8100D7
:1054E00067EEA57AC0ED006A0CEB810009EB810143
:1054F00080ED007A98ED0C7A67EE877AC1ED007A3C
:10550000BFD8D7F804903D69D7E902CB604662085E
:10551000BB6949469847D8F82C307A69D8ED0D6AAE
:105520001A441FED3D7A1FED3D6A2B1D904602F196
:10553000040A5FED3F5A0022A84ED9E900EC51E081
:10554000F4EEC67AF1EE10FAC0F2C78247F6FE70AA
:1055500045F822000CEB0100D0ED007A66EEA77A48
:10556000F4EEC77AF1EE10FA4BD9F4EEC67AF1EE0A
:1055700010FAC0F2BA8247F6FE70BBF1020F43F890
:1055800022002BD0D9F808000844D0ED007A66EE4E
:10559000A77AF4EEC77AF1EE10FA36D9F4EEC67AAD
:1055A000F1EE10FAC0F2CD8247F6FE7048F8220004
:1055B000D9F80C000144D1ED007A66EEA77AF4EE3A
:1055C000C77AF1EE10FA1ED9F4EEC67AF1EE10FAAF
:1055D000C0F2AF8247F6FE714AF8221002329442BE
:1055E0007FF6B1AD51080EEB81008900D0ED007A55
:1055F00066EEA77AF4EEC77AF1EE10FAA0D830463C
:10560000A6E73046B9E73146E6E73046CEE7002C5C
:1056100000F0E081BBF1020FD8F8243000F0E18106
:105620007A69DCF8081003EB820EC7F80490930047
:10563000DFED6B5A0EF1040000227B61DCF80C30C8
:105640003B61331DD7F810903D61FD69C7E902CB7E
:105650008C46834656F82210D8ED0C7A07EE101AC5
:1056600053F82210B8EEC76A07EE101A5EF822103F
:10567000F8EEC76A07EE101A26EE256A5BF82210CC
:10568000B8EEC77A66EEA56A26EE276A27EE257A77
:1056900066EEA76A27EE277A07EE901A51080232C3
:1056A000F8EEE77A0AEB8100944280ED006A05EBA0
:1056B000810067EEA57AC0ED006A0CEB810009EB72
:1056C000810180ED007A98ED0C7A67EE877AC1ED62
:1056D000007ABFD8D7F804903D69D7E902CB60467D
:1056E0006208BB6949469847D8F82C307A69D8EDEA
:1056F0000D6A1A449FED3E7A9FED3E6A131D924655
:10570000DFF8E4C00022FB612B1D364ED9E9008E84
:105710004EE0F4EEC67AF1EE10FAC0F2FC813046AB
:1057200045F822000EEB0100D0ED007A66EEA77A74
:10573000F4EEC77AF1EE10FA49D9F4EEC67AF1EE3A
:1057400010FAC0F2EF813046BBF1020F43F822009D
:105750002AD0D9F808000844D0ED007A66EEA77A7E
:10576000F4EEC77AF1EE10FA35D9F4EEC67AF1EE1E
:1057700010FAC0F2C98130464AF82200D9F80C006C
:105780000144D1ED007A66EEA77AF4EEC77AF1EE25
:1057900010FA1ED9F4EEC67AF1EE10FAC0F2AD811D
:1057A0003146F86940F82210023294427FF6CBACC1
:1057B000510808EB81008900D0ED007A66EEA77AE7
:1057C000F4EEC77AF1EE10FAA3D86046A8E7604677
:1057D000BAE76146E5E76046CEE700BF0280FFFF1B
:1057E000000000300082FF7F007E00800000003457
:1057F00004FF7FBF04FF7F3F002C00F0EB807A693D
:105800000021D8F82430C7F8109003EB820ED7F8A7
:105810001C909300FD610EF104021FED0C6A7B6188
:10582000331D154656F821204808D8ED0C6ABBF107
:10583000020F82F40002A2F5000207EE902A53F84C
:10584000212082F40002B8EEE77AA2F5000227EEEA
:10585000067A07EE902A0AEB8002F8EEE77A27EE46
:10586000267A67EE867A82ED007A09EB80024FEAAB
:10587000800067EEA67AC2ED007A27D05EF821207C
:1058800082F40002A2F5000207EE902A55F82120CA
:1058900082F40002B8EEE77AA2F5000227EE067A5B
:1058A00007EE902ADCF80820F8EEE77A024427EEAB
:1058B000267A67EE867A82ED007A98ED0C7ADCF82B
:1058C0000C2067EE877A0244C2ED007A02318C42E6
:1058D000A8D8D7F8109060466208BB694946FD69B0
:1058E0009847D8F82C307A69D8ED0D6A1A441FED24
:1058F000407A1FED406A131D9246DFF8C4C20022B1
:10590000FB612B1DAB4ED9E9008E4EE0F4EEC67A5A
:10591000F1EE10FAC0F2C580304645F822000EEBD9
:105920000100D0ED007A66EEA77AF4EEC77AF1EEC8
:1059300010FA49D9F4EEC67AF1EE10FAC0F2BF803F
:105940003046BBF1020F43F822002AD0D9F80800F4
:105950000844D0ED007A66EEA77AF4EEC77AF1EE4D
:1059600010FA35D9F4EEC67AF1EE10FAC0F2AE8034
:1059700030464AF82200D9F80C000144D1ED007AF3
:1059800066EEA77AF4EEC77AF1EE10FA1ED9F4EEBD
:10599000C67AF1EE10FAC0F28B803146F86940F811
:1059A0002210023294427FF6CEAB510808EB810000
:1059B0008900D0ED007A66EEA77AF4EEC77AF1EEB0
:1059C00010FAA3D86046A8E76046BAE76146E5E763
:1059D0006046CEE7224649466046BB699847FFF7D6
:1059E000B2BBC7F810B0002298ED0C6A331DDFED92
:1059F000726AD7F81CB0786956F8221007EE901A30
:105A000053F82210B8EEE77A07EE901A51080232E6
:105A1000F8EEE77A27EE267A0AEB810E94420BEB3A
:105A2000810167EEA67A27EE067A67EE867A8EED1A
:105A3000007AC1ED007ADFD88300D7F810B07B611F
:105A40004DE61A46C7F810B098ED0C6A331DDFED2D
:105A50005B6AD7F81CB0786936F9221007EE101A85
:105A600033F9221007EE901AB8EEC77A51080232C5
:105A7000F8EEE77A27EE267A0AEB810E94420BEBDA
:105A8000810167EEA67A27EE067A67EE867A8EEDBA
:105A9000007AC1ED007ADFD88300D7F810B07B61BF
:105AA00034E5F0EE675AFEEEE45A15EE900A34E75C
:105AB000F0EE675AFEEEE45A15EE901A6EE7F0EE3D
:105AC000675AFEEEE45A15EE900A3AE7F0EE675A8E
:105AD000FEEEE45A15EE900A4BE767EEA57AFDEE6E
