:020000040800F2
:1000000000000220990600089506000805800008F7
:1000100095060008950600089506000800000000F7
:10002000000000000000000000000000950600082D
:10003000950600080000000095060008897F00086A
:100040009506000895060008950600089506000824
:100050009506000895060008950600089506000814
:10006000950600089506000895060008917B000893
:100070009D7B000855660008A97B0008B57B000839
:10008000D53F010875700008950600089506000820
:1000900095060008950600089506000895060008D4
:1000A00095060008950600089506000895060008C4
:1000B000A9330108B5330108C1330108A97000084C
:1000C00095060008B570000895060008192C01086F
:1000D000252C0108093E0108393E01086D3E010842
:1000E0009506000895060008000000009506000827
:1000F0009506000895060008950600089506000874
:100100009506000895060008CD330108312C01083A
:10011000A13E0108D53E01082169000895060008A6
:100120000969000815690008552C0108892C010887
:100130000940010895060008950600089506000884
:1001400000000000000000000000000000000000AF
:10015000950600089506000895060008093F010865
:10016000C170000895060008997F0008BD7F00084F
:1001700095060008E17F000895060008950600082E
:1001800095060008950600083D3F01086D3F0108EF
:100190003D2C0108492C0108950600089506000829
:1001A00095060008950600089506000895060008C3
:1001B000B178000895060008950600089506000825
:1001C0009506000895060008756100088161000821
:1001D000950600088D610008950600089506000840
:1001E0009506000895060008950600089506000883
:1001F0009506000895060008950600089506000873
:100200009506000895060008950600089506000862
:100210009506000895060008950600089506000852
:1002200095060008950600089506000800000000E5
:1002300095060008950600080000000095060008D5
:100240009506000895060008950600089506000822
:100250009506000895060008950600089506000812
:100260009506000895060008950600089506000802
:100270009506000895060008A13F0108000000004F
:100280009506000895060008950600080000000085
:080290000000000095060008C3
:1002A00010B5054C237833B9044B13B10448AFF3B0
:1002B00000800123237010BDB80700240000000057
:1002C000E8A7010808B5034B1BB103490348AFF386
:1002D000008008BD00000000BC070024E8A701085A
:1002E00001F0FF01102A2BDB10F0070F08D010F8E7
:1002F000013B013A8B422DD010F0070F42B3F6D1EB
:10030000F0B441EA012141EA014122F007047FF003
:1003100000070023F0E80256083C85EA010586EA5A
:10032000010685FA47F5A3FA87F586FA47F6A5FA96
:1003300087F68EB9EED1F0BC01F0FF0102F00702A2
:1003400032B110F8013B013A83EA010313B1F8D14D
:100350000020704701387047002D06BF354603382E
:10036000073815F0010F07D1013015F4807F02BF67
:10037000013015F4C03F0130F0BC0138704700BFB8
:10038000034613F8012B002AFBD1181A01387047D5
:1003900053B94AB9002908BF00281CBF4FF0FF31EC
:1003A0004FF0FF3000F074B9ADF1080C6DE904CEE8
:1003B00000F006F8DDF804E0DDE9022304B0704740
:1003C0002DE9F047089D04468E46002B4DD18A4208
:1003D000944669D9B2FA82F252B101FA02F3C2F13B
:1003E000200120FA01F10CFA02FC41EA030E9440CC
:1003F0004FEA1C48210CBEFBF8F61FFA8CF708FBED
:1004000016E341EA034306FB07F199420AD91CEBC4
:10041000030306F1FF3080F01F81994240F21C81F6
:10042000023E63445B1AA4B2B3FBF8F008FB10333E
:1004300044EA034400FB07F7A7420AD91CEB040473
:1004400000F1FF3380F00A81A74240F20781644443
:10045000023840EA0640E41B00261DB1D4400023C8
:10046000C5E900433146BDE8F0878B4209D9002D2C
:1004700000F0EF800026C5E9000130463146BDE8B6
:10048000F087B3FA83F6002E4AD18B4202D3824220
:1004900000F2F980841A61EB030301209E46002DCF
:1004A000E0D0C5E9004EDDE702B9FFDEB2FA82F224
:1004B000002A40F09280A1EB0C014FEA1C471FFA82
:1004C0008CFE0126200CB1FBF7F307FB131140EA69
:1004D00001410EFB03F0884208D91CEB010103F136
:1004E000FF3802D2884200F2CB804346091AA4B2F8
:1004F000B1FBF7F007FB101144EA01440EFB00FECC
:10050000A64508D91CEB040400F1FF3102D2A64530
:1005100000F2BB800846A4EB0E0440EA03409CE7CF
:10052000C6F12007B34022FA07FC4CEA030C20FA7C
:1005300007F401FA06F31C43F9404FEA1C4900FA9C
:1005400006F3B1FBF9F8200C1FFA8CFE09FB181119
:1005500040EA014108FB0EF0884202FA06F20BD98C
:100560001CEB010108F1FF3A80F08880884240F2DC
:100570008580A8F102086144091AA4B2B1FBF9F020
:1005800009FB101144EA014100FB0EFE8E4508D91B
:100590001CEB010100F1FF346CD28E456AD90238A0
:1005A000614440EA0840A0FB0294A1EB0E01A14285
:1005B000C846A64656D353D05DB1B3EB080261EBF3
:1005C0000E0101FA07F722FA06F3F1401F43C5E9CD
:1005D000007100263146BDE8F087C2F12003D84003
:1005E0000CFA02FC21FA03F3914001434FEA1C4745
:1005F0001FFA8CFEB3FBF7F007FB10360B0C43EA37
:10060000064300FB0EF69E4204FA02F408D91CEBE6
:10061000030300F1FF382FD29E422DD902386344E4
:100620009B1B89B2B3FBF7F607FB163341EA034184
:1006300006FB0EF38B4208D91CEB010106F1FF38D3
:1006400016D28B4214D9023E6144C91A46EA0046CA
:1006500038E72E46284605E70646E3E61846F8E65C
:100660004B45A9D2B9EB020864EB0C0E0138A3E7A5
:100670004646EAE7204694E74046D1E7D0467BE786
:10068000023B614432E7304609E76444023842E7FE
:10069000704700BFFEE700BF0B480C4A904203D0F2
:1006A000121A0B4916F0EAFB0A480B4A904203D093
:1006B000121A002116F00AFC07F0D0FE16F09AFB81
:1006C00003F042F9FEE700BF00000024B807002451
:1006D00020A80108B8070024D0780024704700BF84
:1006E000704700BF704700BFA1EB000C4FEAAC039E
:1006F0004FEA2C1CBCF1000F40DD00EB0C1C10B4C9
:1007000013780BE04468A3420ED08468A3420FD054
:10071000C468A34210D01030604511D004689C42D8
:10072000F0D15DF8044B704704305DF8044B70471E
:1007300008305DF8044B70470C305DF8044B70478F
:100740000B1A9B10022B13D0032B0BD0012B03D0C1
:1007500008465DF8044B7047137802689A42E0D06F
:100760000846F6E7137802689A42DAD0043000E0CF
:10077000137802689A42D4D00430EEE7022B05D0F9
:10078000032B0ED0012B0AD008467047137802685D
:100790009A4203D0043002689A42F5D17047137828
:1007A000F9E7137802689A42F8D00430EFE700BF07
:1007B000F0B500F1080783B0076029B30446084686
:1007C0000E46FFF7DDFD0F28054601900DD80128E4
:1007D00008D133782372019B002122686360D154D1
:1007E00003B0F0BD0028F6D008E0002201A92046A1
:1007F00016F054F9019B07462060A3602A46314653
:10080000384616F03BFBE6E7014816F035F900BF25
:10081000B09E010881423FD083682DE9F0430D4628
:10082000076883B00446A3EB0708D1E90019A9EBD8
:10083000010646450FD84068C21B96422DD889450F
:1008400004D03846324616F027FB27683E446660DF
:1008500003B0BDE8F083002E35D01D4B9E4234D846
:100860003046019116F041F82768A36805460199C2
:10087000A3EB0708894503D03246284616F0FEFA56
:100880001FB14146384616F02EF82E442560A6606A
:10089000666003B0BDE8F08370473AB1384616F0A1
:1008A000FBFAD4E90070D5E90019C21B114449458F
:1008B000CCD0A9EB010216F0EFFA23681E44666063
:1008C00003B0BDE8F0833546D4E716F0D2F800BF98
:1008D000FCFFFF7F42B31548B7EE006AD0ED007A07
:1008E0004368F8EEE77AD0ED026A017C1A4486EE9E
:1008F000277A10B40024013307EE903AF8EEE77A35
:1009000067EE877A31B1F4EEE67AF1EE10FA01DBA8
:100910000C4600219A42EED14260C0ED037A04B148
:1009200001745DF8044B7047704700BF500A002403
:1009300010B50446006818B1A168091A15F0D3FF74
:10094000204610BDE8B138B504462546E068FFF7FB
:10095000F9FFA468AB6A18461BB1296BC91A15F0D8
:10096000C2FF286905F11803984203D0A969013133
:1009700015F0B9FF3421284615F0B5FF002CE4D15D
:1009800038BD704710B504468068FFF7DBFF20468E
:1009900010BD00BF2DE9F04F83B00090002800F09B
:1009A000D880009BD3F80C90B9F1000F00F0BF8005
:1009B000D9F80CA0BAF1000F00F0A580DAF80CB05D
:1009C000BBF1000F00F08B80DBF80C40002C5ED0F8
:1009D000E568002D38D0EE68002E46D0F768002F6D
:1009E00069D0D7F80C80B8F1000F19D0D8F80C00F6
:1009F000CDF80480FFF7CEFF019AD8F8088010697F
:100A000002F11801884204D09169013115F06BFFA1
:100A1000019A2C21104615F066FFB8F1000FE5D1C0
:100A2000386907F11802D7F80880904203D0B969F5
:100A3000013115F058FF2C21384615F054FFB8F15C
:100A4000000F38D04746CCE7206904F11803A568A9
:100A5000984203D0A169013115F045FF2C212046B1
:100A600015F041FF9DB12C46B2E7286905F1180346
:100A7000AE68984203D0A969013115F034FF2C21EA
:100A8000284615F030FF002EDED03546A3E7DBF810
:100A900010000BF11803DBF80840984204D0DBF893
:100AA0001810013115F01FFF2C21584615F01BFFBF
:100AB000ACB1A34688E7306906F11803D6F8088080
:100AC000984203D0B169013115F00DFF2C21304659
:100AD00015F009FFB8F1000FC7D046467EE7DAF8F7
:100AE00010000AF11803DAF80840984204D0DAF846
:100AF0001810013115F0F7FE2C21504615F0F3FEC9
:100B00000CB1A2465AE7D9F8100009F11803D9F838
:100B10000840984204D0D9F81810013115F0E3FECE
:100B20002C21484615F0DFFE0CB1A14640E7009AA3
:100B3000106902F118039468984203D09169013159
:100B400015F0D1FE2C21009815F0CDFE0CB10094CB
:100B500027E703B0BDE8F08F2DE9F043044683B0EA
:100B60002C200E4615F0C1FE07461830D4E9048546
:100B7000386118EB050F02D0B8F1000F72D00F2DBD
:100B800001955FD8012D47D198F800303B760023BE
:100B90007D614355A26AE068BA627E60C7E90233AC
:100BA00023783B7018B13946FFF7D6FFF860A56887
:100BB00075B33C462C20A04615F097FE044618302D
:100BC0006E692061D5F8109019EB060F02D0B9F1CB
:100BD000000F47D00F2E019624D8012E1FD199F86F
:100BE00000302376002366618355A96A2A78A162C2
:100BF0002270C4E90233C8F80840C4F80480E868E9
:100C000018B12146FFF7A8FFE060AD68002DD1D1F3
:100C1000384603B0BDE8F083002DB8D01BE0002EAD
:100C2000E0D008E0002201A904F1100015F036FF21
:100C3000019B2061A3613246494616F01FF9019ECF
:100C40002069CFE7002201A907F1100015F026FF67
:100C5000019B3861BB612A46414616F00FF9019DA0
:100C6000386994E7014815F007FF00BFB09E0108FE
:100C70002DE9F043044683B02C200E4615F035FED6
:100C8000A56907461C30D4E9043818EB050FC7E9FD
:100C9000043002D0B8F1000F70D00F2D01955DD84F
:100CA000012D45D198F800303B770023BD614355B5
:100CB0002278E0683A707E60C7E9023318B139469D
:100CC000FFF7D6FFF860A56875B33C462C20A04618
:100CD00015F00BFE2B6904461C302361AE69606180
:100CE000D5F8149019EB060F02D0B9F1000F45D0DA
:100CF0000F2E019622D8012E1DD199F800302377AE
:100D00000023A66183552A78C4E902332270C8F80B
:100D10000840C4F80480E86818B12146FFF7A8FF2E
:100D2000E060AD68002DD1D1384603B0BDE8F08356
:100D3000002DBAD01BE0002EE2D008E0002201A96D
:100D400004F1140015F0AAFE019B6061E3613246D4
:100D5000494616F093F8019E6069D1E7002201A987
:100D600007F1140015F09AFE019B7861FB612A4699
:100D7000414616F083F8019D786996E7014815F021
:100D80007BFE00BFB09E01082DE9F04F83B00090BC
:100D9000002800F0D880009BD3F80C90B9F1000F28
:100DA00000F0BF80D9F80CA0BAF1000F00F0A580C8
:100DB000DAF80CB0BBF1000F00F08B80DBF80C40D0
:100DC000002C5ED0E568002D38D0EE68002E46D0AD
:100DD000F768002F69D0D7F80C80B8F1000F19D050
:100DE000D8F80C00CDF80480FFF7CEFF019AD8F8B0
:100DF0000880506902F11C01884204D0D169013198
:100E000015F071FD019A2C21104615F06CFDB8F11A
:100E1000000FE5D1786907F11C02D7F808809042ED
:100E200003D0F969013115F05EFD2C21384615F02B
:100E30005AFDB8F1000F38D04746CCE7606904F19D
:100E40001C03A568984203D0E169013115F04BFD00
:100E50002C21204615F047FD9DB12C46B2E768696C
:100E600005F11C03AE68984203D0E969013115F021
:100E70003AFD2C21284615F036FD002EDED03546F1
:100E8000A3E7DBF814000BF11C03DBF808409842E1
:100E900004D0DBF81C10013115F025FD2C2158463B
:100EA00015F021FDACB1A34688E7706906F11C037B
:100EB000D6F80880984203D0F169013115F013FD8E
:100EC0002C21304615F00FFDB8F1000FC7D0464673
:100ED0007EE7DAF814000AF11C03DAF808409842B9
:100EE00004D0DAF81C10013115F0FDFC2C2150461D
:100EF00015F0F9FC0CB1A2465AE7D9F8140009F133
:100F00001C03D9F80840984204D0D9F81C100131CC
:100F100015F0E9FC2C21484615F0E5FC0CB1A14682
:100F200040E7009A506902F11C039468984203D08C
:100F3000D169013115F0D7FC2C21009815F0D3FCB4
:100F40000CB1009427E703B0BDE8F08FF8B51F4F50
:100F500007F51B66346C9CB12546E068FFF714FF6B
:100F6000A468686905F11C03984203D0E96901315E
:100F700015F0B9FC2C21284615F0B5FC002CEBD15E
:100F8000B46A9CB12546E068FFF704FDA4682869AF
:100F900005F11803984203D0A969013115F0A3FCAB
:100FA0002C21284615F09FFC002CEBD1706806F12F
:100FB0000C03984203D0F168013115F094FCBE4255
:100FC000A6F1500301D01E46C4E7F8BD140B00245F
:100FD00070B5846806469CB12546E068FFF7D4FEEC
:100FE000A468686905F11C03984203D0E9690131DE
:100FF00015F079FC2C21284615F075FC002CEBD15E
:10100000304670BD70B5046C06469CB12546E0685C
:10101000FFF7BAFEA468686905F11C03984203D083
:10102000E969013115F05FFC2C21284615F05BFCC5
:10103000002CEBD1B46A9CB12546E068FFF7AAFC0E
:10104000A468286905F11803984203D0A969013101
:1010500015F049FC2C21284615F045FC002CEBD15D
:10106000706806F10C03984203D0F168013115F065
:101070003AFC304670BD00BF2DE9F047566884B099
:10108000174604468846002E00F0AA807368536015
:10109000002B00F0C380DA6896424FF0000200F0A7
:1010A000C3809A60706906F11C09484503D0F16954
:1010B000013115F018FC2369C6E90439D4E905A506
:1010C0001AEB050F03D0BAF1000F00F02C810F2DA1
:1010D000039500F20581012D40F0A2809AF80030BE
:1010E00033770023B56109F805302378C6F804800A
:1010F00033700023C6E90233E06820B13A46314636
:10110000FFF7BAFFF060A568002D00F0A3807C68AF
:10111000B046002C46D063687B60002B00F09E80B8
:10112000DA6894424FF0000200F0B2809A60606981
:1011300004F11C09484503D0E169013115F0D3FBE6
:101140002B69C4F81490D5F814A02361AB691AEB8D
:10115000030F03D0BAF1000F00F0E5800F2B0393CB
:1011600000F28180012B7BD19AF8002022770022A7
:10117000A36109F803202A7800232270C4E902330E
:10118000C8F80840C4F80480E86820B13A4621460F
:10119000FFF772FFE060AD68002D5BD0A0467C6871
:1011A000002CB8D12C2015F0A0FB2B6904461C3074
:1011B0002361AB696061D5F8149019EB030F03D07C
:1011C000B9F1000F00F0AF800F2B039376D8012BFD
:1011D00071D199F8002022770022A361C254CAE796
:1011E0002C2015F082FB236906461C3040F80C3C8D
:1011F0007061D4E9059519EB050F03D0B9F1000F23
:1012000000F091800F2D03957DD8012D1FD199F805
:10121000003033770023B561435566E7136041E73B
:10122000002D3FF45EAF65E0DA609A68002A3FF473
:1012300039AFD3687A6023B11A46DB68002BFBD143
:101240007A609368002B3FF42DAF7B602AE7002D76
:10125000E0D061E0304604B0BDE8F0873B6066E76F
:10126000002B84D00BE0002203A904F114000193A9
:1012700015F014FC039A8146019B6061E2611A46F5
:101280004846514615F0FAFD039BD4F814906EE7DA
:10129000DA609A68002A3FF44AAFD3687A6023B1D3
:1012A0001A46DB68002BFBD17A609368002B3FF471
:1012B0003EAF7B603BE7002B8ED00AE0002203A903
:1012C00004F11400019315F0E9FB039A019B60619E
:1012D000E2611A46494615F0D1FD039B60697BE740
:1012E000002203A906F1140015F0D8FB039B8146E8
:1012F0007061F3612A464846514615F0BFFD039DD3
:10130000D6F81490EDE6002203A906F1140015F0BA
:10131000C5FB039B7061F3612A46494615F0AEFD9B
:10132000039D706976E7014815F0A6FBB09E0108A1
:1013300070B5036984B0846805460E460390CDE914
:101340000143002C36D000229B68626003B10293F7
:101350000023291DC5E90231B068C5E9041398B11D
:1013600001AAFFF789FE03461A469B68002BFBD1B2
:101370000346EA601A46DB68002BFBD17369019CC7
:101380002A61A8606B619CB12546E068FFF7FCFC10
:10139000A468686905F11C03984203D0E96901312A
:1013A00015F0A1FA2C21284615F09DFA002CEBD15E
:1013B00004B070BD8460011DB06802946C61C5E921
:1013C00003110028CCD104B070BD00BF2DE9F04757
:1013D000566884B0174604468846002E00F0AA805E
:1013E00073685360002B00F0C280DA6896424FF0B9
:1013F000000200F0C2809A60306906F11809484581
:1014000003D0B169013115F06EFAC6F81090D4E935
:1014100004A51AEB050F03D0BAF1000F00F02C81E0
:101420000F2D039500F20581012D40F0A2809AF85E
:10143000003033760023756109F80530A36AB36282
:101440002378C6F8048033700023C6E90233E068CD
:1014500020B13A463146FFF7B9FFF060A568002D8C
:1014600000F0A1807C68B046002C45D063687B60AA
:10147000002B00F09C80DA6894424FF0000200F0EC
:10148000B0809A60206904F11809484503D0A16929
:10149000013115F028FAC4F81090D5E904A31AEB2D
:1014A000030F03D0BAF1000F00F0E6800F2B039377
:1014B00000F28280012B7CD19AF800202276002253
:1014C000636109F80320AB6AA3622A7800232270C3
:1014D000C4E90233C8F80840C4F80480E86820B1C1
:1014E0003A462146FFF772FFE060AD68002D5AD002
:1014F000A0467C68002CB9D12C2015F0F6F90446E2
:1015000018306B692061D5F8109019EB030F03D0E8
:10151000B9F1000F00F0B0800F2B039377D8012BA7
:1015200072D199F80020227600226361C254AB6A1E
:10153000A362CAE72C2015F0D8F906461830D4E982
:101540000495306119EB050F03D0B9F1000F00F0DD
:1015500093800F2D03957FD8012D21D199F800306C
:101560003376002375614355A36AB36268E713605D
:1015700042E7002D3FF45EAF65E0DA609A68002A2A
:101580003FF43AAFD3687A6023B11A46DB68002B88
:10159000FBD17A609368002B3FF42EAF7B602BE782
:1015A000002DDED061E0304604B0BDE8F0873B603E
:1015B00068E7002B83D00BE0002203A904F11000A0
:1015C000019315F06BFA039A8146019B2061A26199
:1015D0001A464846514615F051FC039BD4F810902A
:1015E0006DE7DA609A68002A3FF44CAFD3687A60FE
:1015F00023B11A46DB68002BFBD17A609368002B7D
:101600003FF440AF7B603DE7002B8DD00AE0002225
:1016100003A904F11000019315F040FA039A019B0D
:101620002061A2611A46494615F028FC039B2069F7
:101630007AE7002203A906F1100015F02FFA039BA8
:1016400081463061B3612A464846514615F016FC82
:10165000039DD6F81090EDE6002203A906F11000D4
:1016600015F01CFA039B3061B3612A46494615F018
:1016700005FC039D306974E7014815F0FDF900BFD2
:10168000B09E010870B5036984B0846805460E46B3
:101690000390CDE90143002C36D000229B686260A4
:1016A00003B102930023291DC5E90231B068C5E9E1
:1016B000041398B101AAFFF789FE03461A469B68F6
:1016C000002BFBD10346EA601A46DB68002BFBD1F6
:1016D0007369019C2A61A8606B619CB12546E06832
:1016E000FFF758F9A468286905F11803984203D058
:1016F000A969013115F0F7F82C21284615F0F3F807
:10170000002CEBD104B070BD8460011DB068029460
:101710006C61C5E903110028CCD104B070BD00BFD5
:1017200070B50D1E20DD041F002604EB8501224646
:1017300052F8043F8A421E44FAD116F0BFFA90FBD9
:10174000F6F303FB1603002003E001309B1A8542E9
:1017500004D054F8042F9A42F7DD70BD044B1521D4
:10176000044A054815F000FB16F0A8FAFFDE00BF9A
:10177000DC9E0108049F0108249F010807EE900ADF
:10178000B7EE004BF7EE005AB8EEE76BB4EE650A21
:1017900084EE067BF1EE10FA35FE800AB7EEC77BC9
:1017A000C0EE077AFAFE677AFDEEE77A17EE900A46
:1017B000704700BFF0B583B0002302AC04E9060017
:1017C00004461148B0EB820FA360C4E9003318D37C
:1017D00096007EB130460F4615F087F8054639462B
:1017E000324635442060A56015F048FB2046656010
:1017F00003B0F0BD354620462660A660656003B0A4
:10180000F0BD024815F03BF9FCFFFF7F309F010857
:101810002DE9F041044600F1080782B00846276030
:1018200088461546FEF7ACFD0F280646019017D8EE
:10183000012812D198F800302372002366602046F8
:10184000BB55D5E900122B60E261AA68A1616B600B
:10185000AB60226202B0BDE8F0810028EDD008E064
:10186000002201A9204615F019F9019B07462060C6
:10187000A36032463846414615F000FB019E2768BA
:10188000DBE700BF2DE9F041044600F1080782B014
:101890000846276088461546FEF772FD0F28064663
:1018A000019017D8012812D198F800302372002334
:1018B00066602046BB55D5E900122B60E261AA683C
:1018C000A1616B60AB60226202B0BDE8F0810028CC
:1018D000EDD008E0002201A9204615F0DFF8019BB9
:1018E00007462060A36032463846414615F0C6FAE6
:1018F000019E2768DBE700BF2DE9F041044600F1B7
:10190000080782B00846276088461546FEF738FD6E
:101910000F280646019017D8012812D198F80030F8
:101920002372002366602046BB55D5E900122B6068
:10193000E261AA68A1616B60AB60226202B0BDE89F
:10194000F0810028EDD008E0002201A9204615F022
:10195000A5F8019B07462060A36032463846414601
:1019600015F08CFA019E2768DBE700BF2DE9F041F6
:10197000044600F1080782B00846276088461546ED
:10198000FEF7FEFC0F280646019017D8012812D159
:1019900098F800302372002366602046BB55D5E9D5
:1019A00000122B60E261AA68A1616B60AB602262E9
:1019B00002B0BDE8F0810028EDD008E0002201A9C6
:1019C000204615F06BF8019B07462060A360324665
:1019D0003846414615F052FA019E2768DBE700BF02
:1019E0002DE9F041044600F1080782B0084627605F
:1019F00088461546FEF7C4FC0F280646019017D806
:101A0000012812D198F80030237200236660204626
:101A1000BB55D5E900122B60E261AA68A1616B6039
:101A2000AB60226202B0BDE8F0810028EDD008E092
:101A3000002201A9204615F031F8019B07462060DD
:101A4000A36032463846414615F018FA019E2768D1
:101A5000DBE700BF2DE9F84384688CB300F104088C
:101A6000D1E9009647466569B5422A4628BF324605
:101A700022B14946206915F0F1F900B9A81B0028E8
:101A8000D4E9023218DB27461C46002CEBD1B845BE
:101A900016D07C69B442224628BF324652B148462D
:101AA000396915F0DBF928B1002809DB07F12800B6
:101AB000BDE8F883301BF7E71446002CD3D1E6E7E6
:101AC000014814F0DFFF00BF649F010870B5D1E941
:101AD000002500230E46AD1A04468360C0E900339A
:101AE00019D00F4B9D4218D8284614F0FEFE03462D
:101AF0001D44C4E90033A560D6E900108842A0EB7C
:101B0000010504D018462A4615F0C6F903462B44B1
:101B10002046636070BD2B46EAE714F0AAFF00BFC1
:101B2000FCFFFF7F10B50446006818B1A168091AD0
:101B300014F0D9FE204610BD2DE9F04F8C6883B01B
:101B40008B4681460192A4B3019BD3E900A800E033
:101B500014466669454627695046B045394628BF50
:101B600035462A4615B115F079F908B9A8EB0600F3
:101B70000028D4E90212AEBF00210A460121002A42
:101B8000E6D1B9B9A3468DB12A465146384615F07B
:101B900065F958B100284FF000034846B4BFC9E9C1
:101BA000003BC9E9004303B0BDE8F08FA6EB080095
:101BB000F0E70C1DDBF80C30A3420ED02046A34604
:101BC00014F0FAFE019B0446D0E90476D3E900A89C
:101BD0003546464528BF4546D5E700234846C9E96E
:101BE000003403B0BDE8F08F2DE9F04F1F460B1D08
:101BF00083B00E469A4205464DD01446D7E900B848
:101C0000D2E90419C246C84528BFCA46BAF1000F36
:101C10001CD052465846019115F020F90028019930
:101C200002D1A8EB0903002B14DB084652465946A3
:101C300015F014F908B9A9EB0800002850DB0023BF
:101C4000C5E90043284603B0BDE8F08FA8EB0903BF
:101C5000002BF0DAF368A34217D0204614F0ACFE54
:101C6000D0F814A08146C245524628BF424622B150
:101C70005946006915F0F2F808B9AAEB08000028E7
:101C800025DAD9F80C30002B4BD02846C5E90044A2
:101C900003B0BDE8F08F4B69CBB10C69D7F8048075
:101CA000D4F81490C1454A4628BF424622B139684B
:101CB000206915F0D3F808B9A9EB0800002806DA66
:101CC00000232846C5E9003403B0BDE8F08F28465C
:101CD0003A463146FFF730FF284603B0BDE8F08FA3
:101CE0003369A342ECD0204614F064FED0F814A06F
:101CF0008146C245524628BF424662B15846D9F88D
:101D0000101015F0ABF830B10028E0DAE3682BB121
:101D1000C5E9009996E7A8EB0A00F5E7C5E90034A4
:101D200090E7C5E900398DE72DE9F047154684B005
:101D300006462C200F4614F0D8FD2A6800F1180939
:101D4000044600F11003C0F81090D2E9008518EBAA
:101D5000050F02D0B8F1000F66D00F2D029529D8DB
:101D6000012D21D198F80020CC460DF1080A2276E9
:101D7000002165613A4650460CF80510A1623146D3
:101D8000FFF732FFDDE9027555B3331D002F36D062
:101D900001202A46214614F011FE736920460133C2
:101DA000736104B0BDE8F087002D40D1CC460DF141
:101DB000080ADDE70DF1080A002218460193514692
:101DC00014F06CFE029A019B2061A2612A464146F2
:101DD000019315F053F8029DD4F810C0019BC7E79A
:101DE0002069814503D0A169013114F07CFD2046B2
:101DF0002C2114F078FD384604B0BDE8F0879D42F0
:101E0000C6D0D4F814806F694246B84528BF3A4618
:101E100032B129692069019315F020F8019B08B9B6
:101E2000A8EB0700C00FB4E7034814F025FE4846AE
:101E30000DF1080ACAE700BFB09E010800000000CB
:101E40002DE9F04FC3B285B0434F0190009317F8CE
:101E5000083CA7F12009009A40494846134407F876
:101E6000083C14F05BFF00286CD017F8063CB0EE7D
:101E7000005B17F8082C013B07EE102A06EE903A9B
:101E8000B8EEC77BB8EEE66B9FED314BA6EE047B58
:101E900037EE457BB7EEC77B7C68A7F1040A07EDF8
:101EA000097A002C44D0B84657E908B66569594606
:101EB000B5422A4628BF32461AB1206914F0CEFF37
:101EC00000B9A81B0028D4E902322DDBA0461C462D
:101ED000002CEBD1B8452CD0D8F81440B44222469F
:101EE00028BF32462AB1D8F81010584614F0B6FF71
:101EF00000B9301B00281CDB17F8083C5037D8F815
:101F00002820013303EB43039B00013B134407F8F4
:101F1000573C134BBB429AD1124A019913680B44A8
:101F2000136005B0BDE8F08F1446002CBED1D1E798
:101F3000B846414603AA5046CDF80C90FFF7F4FE90
:101F40008046D9E79FED087AA6E700BFAFF300808F
:101F5000F792C6681D55B53F380B00246C9F0108E9
:101F6000381500244C0A0024000000002DE9F0433D
:101F7000154685B007462C200E4614F0B6FC2B46BD
:101F800000F11808044600F1100253F8081BC0F8CD
:101F9000108099424DD00161A96881612B600023B6
:101FA000696802A82B726B60AB6961613146A362FC
:101FB000FFF7C2FDDDE9029545B3331DB9F1000F0E
:101FC0000ED001202A46214614F0F8FC7369012244
:101FD00038463C6013443A71736105B0BDE8F08344
:101FE0009D42EED0D4F81490D5F814804A46C145ED
:101FF00028BF424632B129692069019314F02EFFAF
:10200000019B08B9A9EB0800C00FDBE720698045F8
:1020100003D0A169013114F066FC20462C2114F094
:1020200062FC00233846C7F800903B7105B0BDE85C
:10203000F083A96881615968C8F804109968C8F8E4
:102040000810D968C8F80C10A8E700BF2DE9F843BC
:102050008C6880469146B4B1166800E01C4625693C
:10206000E268B542A368D6BF134601270027002BBC
:10207000F4D14FB9AE42234613DC00234046C8E9F1
:102080000043BDE8F8830C1DCB68A3420FD0204667
:1020900014F092FCD9F80060056923460446AE426C
:1020A000EBDD00224046C8E90023BDE8F8830023A9
:1020B0004046C8E90034BDE8F88300BF2DE9F0418F
:1020C0001D460B1D0F4606469A4224D0D5F80080C7
:1020D0001446136943450FDDCB68934236D0104652
:1020E00014F06AFC036943451CDAC3689BB33046AD
:1020F000C6E90044BDE8F0811CDA0B6993421FD0A9
:10210000104614F057FC036998450BDAE3682BB3CB
:10211000C6E900000BE04B6923B10B6929681A6915
:1021200091420DDC2A4639463046FFF78FFF304694
:10213000BDE8F0810023C0E900233046BDE8F0810E
:1021400000223046C6E90023BDE8F081C0E9003333
:102150003046BDE8F081C6E90030E8E7C6E9003462
:10216000E5E700BF91426BD02DE9F04F0C4687B0F8
:102170009346814600F1040A14E01B782B774FF058
:10218000000E5346AE613A46294640460CF806E03A
:1021900014F014FCD9F814300133C9F814301C348D
:1021A000A3454AD023465246494604A8FFF786FF76
:1021B000059F002FF3D0A7EB0A08049BB8FA88F814
:1021C0004FEA5818002B18BF48F00108B8F1000F6B
:1021D0002AD02C2014F089FBA66800F11C0C0546BF
:1021E000D4E90023F342C0E9042C00D04BB30F2EF6
:1021F000039604D8012EC0D0002EC0D00BE00022E0
:1022000003A905F11400019314F048FC039A8446D5
:10221000019B6861EA6132466046194614F02EFE61
:10222000039ED5F814C0AAE722683B699A42ACBF66
:102230004FF000084FF00108CBE707B0BDE8F08F82
:102240007047014814F018FCB09E0108F0B517461D
:1022500083B005462C200E4614F047FB3968002356
:10226000324600F11C060968044683610161294673
:10227000037700F1100346616846FFF71FFFDDE9B1
:102280000072A2B12B1D4FB10120214614F096FB24
:102290006B69204601336B6103B0F0BD9A42F3D005
:1022A000206911698842ACBF00200120EDE7606918
:1022B000864203D0E169013114F015FB20462C2140
:1022C00014F011FB384603B0F0BD00BF2DE9F0411A
:1022D000154682B007462C200E4614F006FB2B68EC
:1022E00000F11C086A680446036105F10C03C0F89C
:1022F00014809A423CD04261EA68C261AA683146C1
:102300006B600023A261684604F110022B73AB607E
:10231000FFF79CFEDDE90052C2B1331D6DB1012013
:10232000214614F04BFB7369012238463C6013448C
:102330003A71736102B0BDE8F0819A42EFD0206932
:1023400011698842ACBF00200120E9E7606980453F
:1023500003D0E169013114F0C6FA20462C2114F0B3
:10236000C2FA002338463D603B7102B0BDE8F081FF
:10237000EA68C2615A68C8F804209A68C8F8082058
:10238000DA68C8F80C20B9E770B501238AB000F10B
:102390002006054605AC04930993432301A803AA2C
:1023A00031460394ADF81430FFF7E0FD0398A042E6
:1023B00003D00599013114F096FA022301A803AA6B
:1023C00031460493099342F243330394ADF8143039
:1023D00000238DF81630FFF7C9FD0398A04203D003
:1023E0000599013114F07FFA012301A803AA3146AF
:1023F000049344230394ADF8143003230993FFF7A7
:10240000B5FD0398A04203D00599013114F06BFA91
:1024100046F2452303AA31460394ADF81430022353
:10242000049300238DF8163004230DEB0300099369
:10243000FFF79CFD0398A04203D00599013114F0E9
:1024400052FA012301A803AA3146049345230394B9
:10245000ADF8143005230993FFF788FD0398A042D7
:1024600003D00599013114F03EFA012301A803AA13
:102470003146049346230394ADF8143006230993A0
:10248000FFF774FD0398A04203D00599013114F0C1
:102490002AFA42F2463301A803AA3146ADF81430B5
:1024A00002230394049300238DF816300723099325
:1024B000FFF75CFD0398A04203D00599013114F0A9
:1024C00012FA012301A803AA314604934723039477
:1024D000ADF8143008230993FFF748FD0398A04294
:1024E00003D00599013114F0FEF942F2473301A8F7
:1024F00003AA3146ADF81430022303940493002359
:102500008DF8163009230993FFF730FD0398A04298
:1025100003D00599013114F0E6F9012301A803AABB
:102520003146049341230394ADF814300A230993F0
:10253000FFF71CFD0398A04203D00599013114F068
:10254000D2F946F2422301A803AA3146ADF814306D
:1025500002230394049300238DF816300B23099370
:10256000FFF704FD0398A04203D00599013114F050
:10257000BAF9012301A83146039404934223ADF82C
:1025800014300C230DEB03020993FFF7EFFC0398C3
:10259000A04203D00599013114F0A5F90123383583
:1025A00006AC01A8039303AA059343232946049488
:1025B000ADF81830FFF78AFE0498A04203D00699C0
:1025C000013114F090F9022301A803AA29460593CA
:1025D000CDE9033400238DF81A3042F24333ADF8CD
:1025E0001830FFF773FE0498A04203D0069901311A
:1025F00014F079F9032301A803AA2946CDE903348D
:10260000012305934423ADF81830FFF75FFE0498CB
:10261000A04203D00699013114F065F9042301A802
:1026200003AA2946CDE9033446F24523ADF8183014
:102630000223059300238DF81A30FFF747FE049814
:10264000A04203D00699013114F04DF9052301A8E9
:1026500003AA2946CDE90334012305934523ADF8A8
:102660001830FFF733FE0498A04203D006990131D9
:1026700014F039F9062301A803AA2946CDE9033449
:10268000012305934623ADF81830FFF71FFE049889
:10269000A04203D00699013114F025F9072301A8BF
:1026A00003AA2946CDE9033442F24633ADF8183087
:1026B0000223059300238DF81A30FFF707FE0498D4
:1026C000A04203D00699013114F00DF9082301A8A6
:1026D00003AA2946CDE90334012305934723ADF826
:1026E0001830FFF7F3FD0498A04203D0069901319A
:1026F00014F0F9F8092301A803AA2946CDE9033407
:1027000042F24733ADF818300223059300238DF8C9
:102710001A30FFF7DBFD0498A04203D0069901317F
:1027200014F0E1F80A2301A803AA2946CDE90334ED
:10273000012305934123ADF81830FFF7C7FD049836
:10274000A04203D00699013114F0CDF80B2301A863
:1027500003AA2946CDE9033446F24223ADF81830E6
:102760000223059300238DF81A30FFF7AFFD04987C
:10277000A04203D00699013114F0B5F80C2301A84A
:1027800029460DEB030203930123CDE904434223C1
:10279000ADF81830FFF79AFD0498A04203D00699CF
:1027A000013114F0A0F80AB070BD00BF00000000B5
:1027B000654AD2E900312DE9F043C91A044685B0D3
:1027C00018468910614DFEF7ABFF614A6D7F00230B
:1027D000126804F10C0104F13C07261D52F8202078
:1027E0002046A360B8461544237384F82430A362BE
:1027F000013D636384F83C30EDB22364E36404F18B
:1028000024036160C4E90B33C4E91177FFF7BCFD11
:10281000504B6577A3FB0523DB0803EB4303A5EBD4
:102820008305236C0135EDB2A577002B3AD01969E9
:102830008D42D3E902025EDD1346002BF7D14745F6
:1028400030D0D8F810309D422CDB08F1140130460E
:1028500014F07EF9637F3F4A30463F49A2FB0323D1
:10286000DB08013B237714F059FA002848D0A37FF6
:10287000B0EE005B227F2046013B07EE102A06EEF9
:10288000903AB8EEC77BB8EEE66B9FED2D4BA6EE07
:10289000047B37EE457BB7EEC77B84ED007A05B04D
:1028A000BDE8F0832C20CDF8048014F01EF800233E
:1028B00000F11C09056183618046037704F138014A
:1028C000019A00F11003C0F8149002A8FFF7F6FB7C
:1028D000DDE90252E2B1281E18BF0120974208BF6D
:1028E00040F0010018B33B46414614F067F8E36C32
:1028F0000133E364A9E798460346002B97D19EE78E
:102900009FED167A204684ED007A05B0BDE8F0838D
:10291000D8F81400814504D0D8F81C10013113F008
:10292000E2FF40462C21A84613F0DDFF8DE7D8F8E2
:10293000100013699842ACBF00200120D3E700BF0C
:10294000F792C6681D55B53F4C150024C40A0024F3
:1029500058150024ABAAAAAA6C9F01080000000029
:1029600030B53C4895B003F0E7FA3B4D15F0A6F9B9
:102970003A4B044668461B6894FBF3F202FB13448F
:10298000FFF716FF15F09AF9354B642104EB840428
:1029900083FB0023C217C2EB6312324B01FB120010
:1029A00003EB0412009B01A907EE900A101D1360AF
:1029B0001446B8EEE77B95ED006BB4EEC67BF1EE06
:1029C00010FA4CBF012300238DF81F3014F0C0F81B
:1029D000079B04F1200008A9E361FEF753FE04F110
:1029E00038000EA9FEF7A4FC109C9CB12546E068B7
:1029F000FEF7CAF9A468686905F11C03984203D080
:102A0000E969013113F06FFF2C21284613F06BFFA9
:102A1000002CEBD10A9C9CB12546E068FDF7BAFF7B
:102A2000A468286905F11803984203D0A969013107
:102A300013F059FF2C21284613F055FF002CEBD141
:102A4000019803AB984203D00399013113F04BFF77
:102A500015B030BD949F01083000002444000024CC
:102A60001F85EB51140B002400232DE9F04F8360E8
:102A700000F1240A037385B080F82430D6B2836253
:102A800000F1040B4363054680F83C300364C364E3
:102A900000F13C0301910096C0E9113300F10C03F1
:102AA000C0E90BAA4360FFF76FFC0199584614F088
:102AB0004FF8AC6A2E77002C56D0D146D5E9018765
:102AC00066694146BE42324628BF3A461AB120697D
:102AD00014F0C4F900B9F01B0028D4E9022150DB3E
:102AE000A1461446002CEBD1CA453ED0D9F814407B
:102AF000BC42224628BF3A462AB14046D9F81010B7
:102B000014F0ACF900B9381B00282EDB009B5846A6
:102B1000254903F1010899F8283008EB4808AB77FC
:102B200003EB880808F1FF3885F81D8014F0F6F8EB
:102B300058B3AB7FB0EE005B2A7F2846013B07EE1F
:102B4000102A06EE903AB8EEC77BB8EEE66B9FED22
:102B5000144BA6EE047B37EE457BB7EEC77B85EDC5
:102B6000007A05B0BDE8F08FD146494603AA05F1C9
:102B70002000CDF80CB0FFF7D7F82B7F81460093EB
:102B8000C4E70C46002C9BD1AEE79FED087A28469F
:102B900085ED007A05B0BDE8F08F00BFAFF300808F
:102BA000F792C6681D55B53F6C9F010800000000F4
:102BB0002DE9F04FBB4CBC48BC4E2DED028BB3B0A1
:102BC00003F0BAF9BA48217803F0B6F9B36825786A
:102BD000002B00F06484043631461A699542D3E92B
:102BE000024040F354810346002BF6D1B14200F07D
:102BF00056840B699D42C0F25284AE4F1431384660
:102C000013F0A6FFAC4B9C68002C00F0488403F145
:102C10000408D7E900A9464665694D452A4628BFFC
:102C20004A4622B15146206914F018F908B9A5EBBB
:102C300009000028D4E90232C0F22F8126461C4642
:102C4000002CE9D1464500F02A8474694C4522469F
:102C500028BF4A46002A00F0B0805046316914F07F
:102C6000FDF8002800F0A9800028C0F2188406F1C1
:102C700028019248FDF7CEFD914B9C68002C00F096
:102C80000E8403F10408D7E9009647466569B5420A
:102C90002A4628BF324622B14946206914F0DEF8A0
:102CA00000B9A81B0028D4E90232C0F231812746BE
:102CB0001C46002CEAD1474500F0F1837C69B44200
:102CC000224628BF3246002A75D04846396914F09A
:102CD000C5F800286FD00028C0F2E18307F1280171
:102CE0007848FDF797FD784C00237849784AA4F19D
:102CF000040A04F11C0804F134091E460B60137029
:102D0000CDF808A0002E5BD103230122714D72493A
:102D100072482B600A6003F00FF92B68002B00F05B
:102D20009280022B00F0F980012B00F0E981032B47
:102D300000F0C782684B6A4D1B68B3FA83F35B09E6
:102D400054F8042C2146E3765034664801362A6054
:102D500013F0FEFE14F8370C414614F8353C08F128
:102D6000500814F8362C14F8387C68775E48EB77F6
:102D7000AA772F77FEF786FC49465C48FEF7D8FA1B
:102D80005B4B09F15009A342BCD15A481C1FDDF826
:102D900008A003F0D1F89AF81C200AF1500A5AF85A
:102DA0004C1C554803F0C8F85445F4D133B0BDEC81
:102DB000028BBDE8F08F301B8DE7A9EB040053E7D1
:102DC00014F07CFF4D4A64214D4D82FB0032C31745
:102DD000C3EB621301FB130007EE900A95ED006B45
:102DE000B8EEE77BB4EEC67BF1EE10FA05D5002213
:102DF000394901233A4D0A60A2E7424F0122D7E93F
:102E00000053D7E902011D44334B28441A6045188A
:102E100014F054FF3A46002190FBF5F303FB150034
:102E200004E00131C01A042900F03E8352F8043B4B
:102E30008342F6DD274D3448296003F07DF82B6886
:102E4000002B7FF46EAF264D2046294651F8043BF7
:102E500044F8043C13F07CFEEB7FAA7F287F697F57
:102E6000E376A27620764046617605F12001FEF7F2
:102E700009FC05F138014846FEF75AFA234803F0E9
:102E80005BF8154B1B68B3FA83F35B0958E71946E7
:102E90002346002B7FF4A1AEA8E61446002C7FF455
:102EA000BBAECFE640000024B49F01080408002414
:102EB000C89F0108D40700241C08002458150024CA
:102EC000340800244C150024180B00244C0A00245C
:102ED000C10A00243C0A0024400A0024DC9F0108A7
:102EE000700A0024740A0024900A0024A80A00240E
:102EF0001815002430A0010840A001081F85EB51DF
:102F00003000002414000024EC9F0108FC9F0108FD
:102F10001446002C7FF4BAAECDE6734F734D74485F
:102F200003F00AF805F11E02D7E90001FDF7DCFB0A
:102F30003A68297F801A01918310013B05D57B688F
:102F400001399B1A01919B10013B52F823202B6CF5
:102F50000492002B00F0A682DFF8A0C196466046DE
:102F600019698E45D3E9022740F3B7803B46002B11
:102F7000F6D1604502D003699E4506DA04AB0146EE
:102F80001EAA5C481E93FFF761F90DF1200BD0E9F2
:102F900005A7CDF818B01AEB070F03D0BAF1000F50
:102FA00000F088820F2F1E9700F23782012F40F029
:102FB00030829AF800305A468DF820300023079767
:102FC000D3550EAB0C93DDE90637FB4202D0002B44
:102FD00000F070820F2F1E9700F20482012F40F044
:102FE000E9811B780DF1380C0DF1780A8DF8383035
:102FF0000CAB08EE103A00230D97019A18EE101A48
:103000000CF807305046FFF72FFD0C980EAB984296
:1030100003D00E99013113F066FC1E9B1FA92046B8
:1030200044F8043C13F094FD9DF8943026A94046E2
:1030300023769DF8953063769DF89630A3769DF8BB
:103040009730E376FEF71EFB2CA94846FEF770F991
:103050002E9FAFB1BA46F868FDF796FEBF68DAF862
:1030600014000AF11C03984204D0DAF81C10013154
:1030700013F039FC2C21504613F035FC002FE9D118
:10308000289FAFB1BA46F868FDF784FCBF68DAF84C
:1030900010000AF11803984204D0DAF81810013130
:1030A00013F021FC2C21504613F01DFC002FE9D118
:1030B0001F9821AB984203D02199013113F013FCE2
:1030C0000698584503D00899013113F00CFC0A4BBF
:1030D0001B68B3FA83F35B0932E618461346002BEC
:1030E0007FF43EAF45E700BF58150024700A002466
:1030F00010A00108A80A0024400A0024AC0A0024F9
:10310000B24FB34DB34802F017FF05F11E02D7E9E5
:103110000001FDF7E9FA95F81CB0D7E90031C01AB3
:10312000C91A82100132B2EBA10F80F2398104304A
:1031300003441A682B6C0592002B00F03981DFF8EC
:10314000A0C29646614618698645D3E9022740F336
:10315000B2803B46002BF6D1614502D00B699E45FB
:1031600006DA05AB1EAA9C481E93FFF76FF80146CE
:1031700014ABD1E905A712931AEB070F03D0BAF1EC
:10318000000F00F097810F2F1E9700F27981012F19
:1031900040F073819AF800308DF8503014AB002263
:1031A0001397DA551AAB1893DDE91237FB4202D0B8
:1031B000002B00F07F810F2F1E9700F24781012F17
:1031C00040F03A811B780DF1680C0DF1780A8DF80A
:1031D000683018AB08EE103A002319975A4618EEDB
:1031E000101A0CF807305046FFF73EFC18981AAB3F
:1031F000984203D01A99013113F075FB1E9B1FA949
:10320000204644F8043C13F0A3FC9DF8943026A912
:10321000404623769DF8953063769DF89630A376E8
:103220009DF89730E376FEF72DFA2CA94846FEF775
:103230007FF82E9FAFB1BA46F868FDF7A5FDBF68CD
:10324000DAF814000AF11C03984204D0DAF81C10D2
:10325000013113F048FB2C21504613F044FB002FA2
:10326000E9D1289FAFB1BA46F868FDF793FBBF6874
:10327000DAF810000AF11803984204D0DAF81810AE
:10328000013113F030FB2C21504613F02CFB002FA2
:10329000E9D11F9821AB984203D02199013113F055
:1032A00022FB129814AB98423FF411AF14990131EC
:1032B00013F019FB0BE719461346002B7FF443AFBD
:1032C0004AE7464802F038FE1EA8FFF771FA1E9B37
:1032D0001FA9204644F8043C13F03AFC9DF89430B2
:1032E0003B4D26A9237640469DF8953063769DF8A0
:1032F0009630A3769DF89730E376FEF7C3F92CA9B4
:103300004846FEF715F828461E9B1FA940F8043BC7
:1033100013F01EFC259B26A905F12000EB61FEF7AA
:10332000B1F92CA905F13800FEF702F82E9FAFB1D4
:10333000BA46F868FDF728FDBF68DAF814000AF10C
:103340001C03984204D0DAF81C10013113F0CBFAB8
:103350002C21504613F0C7FA002FE9D1289FAFB1B6
:10336000BA46F868FDF716FBBF68DAF810000AF1F4
:103370001803984204D0DAF81810013113F0B3FAA8
:103380002C21504613F0AFFA002FE9D11F9821AB42
:1033900098423FF49CAE2199013113F0A4FA96E6CD
:1033A0001A680BF1010B2B6C0592002B7FF4C7AE52
:1033B0000B49D6E6002F40F08B800CAB0DF1380C9A
:1033C0000DF1780A08EE103A15E600BF58150024F2
:1033D000700A002420A00108A80A0024DC9F01082C
:1033E000AC0A002403930DF1780A0CAB002251467D
:1033F000184608EE103A13F051FB1E9A039B0C90EE
:103400000E923A46194613F039FD1E9FDDF830C082
:10341000F1E5002F5AD15A46D0E500221EA906A890
:1034200013F03CFB1E9B069008933A46514613F05E
:1034300025FD1E9F069AC1E5002F40D118AB0DF166
:10344000680C0DF1780A08EE103AC5E601930DF10B
:10345000780A18AB00225146184608EE103A13F0CD
:103460001DFB1E9A019B18901A923A46194613F0BA
:1034700005FD1E9FDDF860C0AEE6F7B914AB8EE621
:1034800000221EA912A813F009FB1E9B1290149390
:103490003A46514613F0F2FC1E9F129B7FE61048FD
:1034A00013F0F0FA0F4869E50F4B15210F4A104849
:1034B00013F05AFC0F4813F0DFFA14A8E8E718AA33
:1034C0001AA80DF1780A08EE102ACEE75846ACE7A4
:1034D0000CAA0EA80DF1780A08EE102A91E700BF99
:1034E000649F0108AC0A0024DC9E0108049F0108C7
:1034F000249F0108B09E01082DE9F04FA04CA14D7A
:103500002DED028B94F8009099B009EB890807AE75
:103510004FEA890A05EB08180596D8E901B7D8F8EB
:1035200000201BEB070F049203D0BBF1000F00F04B
:10353000F2810F2F039700F2E980012F40F0C8803D
:103540009BF8003032468DF81C30D14400230DA981
:10355000069705EB0919D355D8F82800D9F81C208F
:103560008DF834300B920E931193CDE90F1188B181
:10357000FDF7F2FA03461A469B68002BFBD103467F
:103580000F921A46DB68002BFBD1D8F8343010922A
:103590000E901193002313A9D8F840008DF84C30F9
:1035A00014931793CDE9151188B1FDF761FB03461C
:1035B0001A469B68002BFBD1034615921A46DB681E
:1035C000002BFBD1D8F84C30169214901793237827
:1035D0006D4803EB830305EB031393ED007A1A7F29
:1035E000B7EEC77A59688DED007B02F0A5FC9DF817
:1035F0002F70002F78D02378002B6ED1634DB0EE62
:10360000087A634BB0EE008A2A78022193ED006AB3
:1036100007EE902A5F48F8EEE77AC7EE866AA6EED4
:10362000878AB0EE480A01F0A5FAB7EEC87A297881
:10363000594853EC172B02F07FFC2378574A01338B
:103640001268DBB2934223700ADB554B1B78002BC8
:103650006BD1544B1B78002B40F0AE8000232370BD
:10366000149C9CB12546E068FDF78EFBA468686950
:1036700005F11C03984203D0E969013113F033F9D5
:103680002C21284613F02FF9002CEBD10E9C9CB175
:103690002546E068FDF77EF9A468286905F118035E
:1036A000984203D0A969013113F01DF92C21284655
:1036B00013F019F9002CEBD10598B04203D007990B
:1036C000013113F010F919B0BDEC028BBDE8F08F99
:1036D000002F40F01E81324637E79FED330A02216A
:1036E0002C4801F047FAA8E723780121294803EB89
:1036F000830305EB031595ED000A01F03BFA2B4B14
:1037000001225F601A740022DA6074E7002203A9C4
:1037100005A813F0C3F9039B059007933A46594651
:1037200013F0ACFB039F059A0FE7184D2B7801337C
:103730002B7014F0C3FA2B78154A07EE903A1C4B05
:1037400092ED006AF8EE677A83FB0032C317DFED73
:10375000196A87EE867AC3EB6213642202FB1300B8
:1037600007EE900AF8EEE77A27EE267AF4EEC77AAB
:10377000F1EE10FA7FF56DAFFFF71AFA6EE700BFB2
:1037800068080024140B00244CA00108C10A00247E
:10379000280000246C08002470A0010844000024C4
:1037A000040000240E00002400000000500A002441
:1037B0001F85EB5100004842584D14F07FFA6427F2
:1037C00085FB0032C317C3EB621307FB1300544B96
:1037D00007EE900A93ED007AF8EEE77AF4EEC77AF6
:1037E000F1EE10FA3DD54F4B1B78002B53D14E4BC9
:1037F0001B7823BB14F062FA85FB0035C317C3EBBB
:10380000651307FB130031285BDC484D484F2B78CC
:103810003A685B424748934263DB02F08DFB3B68AA
:10382000454A0133127893423FF718AF2A78524243
:103830009342FFF613AF0120FEF702FB0EE73D486F
:1038400002F07AFB3A4B3C4A1B68127801339342F0
:103850003FF704AF354A127852429342FFF6FEAE6C
:10386000E9E714F02BFA85FB0035C317C3EB6515A8
:10387000324B07FB150093ED007A07EE900AF8EE45
:10388000E77AF4EEC77AF1EE10FA7FF5E7AE0120A1
:10389000FFF766F8E2E6274802F04EFB244B264A83
:1038A0001B681278013B93423FF7D8AE1F4A12784B
:1038B00052429342FFF6D2AE4FF0FF30FEF7C0FA0D
:1038C000CCE61D4D1A4F2A783B681A489A4217DCFD
:1038D00002F032FB3B682A78013B93423FF7BEAED1
:1038E000E4E702F029FB3B68134A013B127893425C
:1038F0003FF7B4AE2A7852429342FFF6AFAEDBE711
:1039000002F01AFB3B682A78013393423FF7A6AED8
:10391000A0E7304602E70A4813F0AEF81F85EB51E6
:103920002400002469080024491500240C00002408
:103930004C0A0024749F01080D000024100000248C
:10394000B09E0108000000002DE9F04F0020B44EA9
:10395000DFF82CB32DED028B85B09FEDB28A14F009
:103960003FFA14F07DF9B04800F0AAFF002002F001
:10397000F1FAAD4801F0E6F8AC49AB4801F0DEF8E9
:10398000AB4BB0EE480AAB481A78597842EA0121AD
:1039900002F016FBA84BB0EE480AA8481A785978EE
:1039A00042EA012102F00CFBA54802F0C5FAB1EE93
:1039B000040A02219C4801F0DDF89B4801F0C6F89A
:1039C000994801F0CFF89B4802F014FB9B4802F0A5
:1039D00011FB9C484BF6803200234FF07A5180ED6A
:1039E000038A0260954A4360927A0374FF2A8160D9
:1039F000954908BF0123954A8B480B70019100211E
:103A00001370029201F0B0F8B0EE408A04218648AB
:103A100001F0AAF8F7EE007A38EE000A9FED8C7AF2
:103A200081480221B4EE670AF1EE10FA37FE800AEF
:103A300060EE077AFAFE677AFDEEE77AC6ED007A65
:103A400001F092F8DBF81400FDF798FE10F0FF008B
:103A5000804B00F0BC810393187032684FF4A07360
:103A6000DFF8D0917C4C7D4F7D4DDFF8188293FBC1
:103A7000F2F307EE903A7B4BF8EEE77AC3ED007A6B
:103A8000FFF796F814E003F093F9B0FA80F35B09BE
:103A90001846754A137048B198F8002032B9734837
:103AA00002F04AFAFFF784F86F4A137888F800307A
:103AB0005D4801F04BF85C4801F054F85D4802F0B5
:103AC00099FA5E4802F096FA99F8043023B199F811
:103AD0000A307F2B00F02D81584B0021029A9B7AEF
:103AE0005148FF2B0CBF012300231370019A137060
:103AF00001F03AF8B0EE408A04214B4801F034F866
:103B0000F7EE007A38EE000AB4EEE70AF1EE10FAAA
:103B100074DD202302214448336001F025F8F7EEDC
:103B2000007ADFED538AB7EE005B039AB0EE688A45
:103B30000121B4EE670A3C48F1EE10FA37FE800A24
:103B4000DBED057AB8EEE76B85EE067BB7EEC77B5B
:103B5000C0EE077AFAFE677AFDEEE77A17EE903A42
:103B600013F0FF0308BF0123137000F0FDFFA0EE68
:103B7000688A06212C4800F0F7FFB0EE486AA0EEF4
:103B8000686AB5EEC06AF1EE10FA30D4B7EEC66AD4
:103B900084ED006B4FF4A073326897ED005B93FBEC
:103BA000F2F3B4EE465B07EE903A2E4BF8EEE77A6E
:103BB000F1EE10FAC3ED007A40F09A80214B2D48C7
:103BC000197C87ED006B03F001F92B4802F024F912
:103BD000002859D1144B294893F8BD31002B7FF4AC
:103BE00052AF03F0E5F8031E18BF012351E79FED24
:103BF0000A7BB0EE476B84ED007BCBE7DFED147AF8
:103C000020EE270ABAFE400AFDEEC07A17EE903A7F
:103C100080E700BFAFF3008000000000000000005C
:103C200044000024000000006C080024D5080008AF
:103C300034A101084C08002438A1010814150024FF
:103C40008CA00108500A0024040000240E00002467
:103C5000000000424000002430000024380000240E
:103C6000C41400242800002448150024B0A0010832
:103C70000000C8422A0A00241C0A0024230A002447
:103C800004080024C00A002404F02CFA544B07EE68
:103C9000900A544A5449B8EE677B93ED006B82ED6D
:103CA000007B83ED007B37EE466B504A504B83ED33
:103CB000006B1368013313600A680132022A0A603C
:103CC0003DDCF4EE007A4B4AB0EE677AC2ED007A42
:103CD000494A062B82ED027A07DD0023434A474911
:103CE000136000220023C1E90023FFF705FC71E700
:103CF000DFF824A113F0E2FF414A0AF1500A82FBE7
:103D00000032C317C3EB6213642202FB130007EEF9
:103D1000900A94ED006BB8EEE77BB4EEC67BF1EE53
:103D200010FA4CBF0123002355458AF81F30E1D11A
:103D300044E7344802F000F9FEF73AFFCCE607EE1C
:103D4000903A2E4B03213048B8EEE77B93ED005BB1
:103D50009FED214B36EE056B86EE075B83ED006B26
:103D60002A4B85EE047B83ED005B294B83ED007BC2
:103D700000F0FAFEB0EE408A0721234800F0F4FE7E
:103D8000F7EE007A38EE007AB4EEE77AF1EE10FA48
:103D90001ADDB7EE007B1E4BDFED1E6A93ED005B74
:103DA000144B27EE057BB7EEC77BB4EEE67A83EDC6
:103DB000007AF1EE10FA04D5B0EE667A0D4BC3ED41
:103DC000006A0A4B1B6883E7B7EEC77AE3E71A4637
:103DD00003930123137040E60000000000408F4071
:103DE000680A002460080024480A0024440A0024C9
:103DF0002815002408000024500A0024301500244F
:103E00001F85EB51A0A001086C0800243815002480
:103E1000401500240AD7233C140B00242DE9F04F51
:103E20008C6883B08B4681460192A4B3019BD3E991
:103E300000A800E014466669454627695046B0452B
:103E4000394628BF35462A4615B113F007F808B998
:103E5000A8EB06000028D4E90212AEBF00210A46F2
:103E60000121002AE6D1B9B9A3468DB12A465146AF
:103E7000384612F0F3FF58B100284FF000034846CF
:103E8000B4BFC9E9003BC9E9004303B0BDE8F08F06
:103E9000A6EB0800F0E70C1DDBF80C30A3420ED0B7
:103EA0002046A34612F088FD019B0446D0E9047623
:103EB000D3E900A83546464528BF4546D5E7002347
:103EC0004846C9E9003403B0BDE8F08F2DE9F04F52
:103ED0001F460B1D83B00E469A4205464DD0144630
:103EE000D7E900B8D2E90419C246C84528BFCA4676
:103EF000BAF1000F1CD052465846019112F0AEFFA5
:103F00000028019902D1A8EB0903002B14DB084615
:103F10005246594612F0A2FF08B9A9EB0800002842
:103F200050DB0023C5E90043284603B0BDE8F08F0D
:103F3000A8EB0903002BF0DAF368A34217D0204660
:103F400012F03AFDD0F814A08146C245524628BF6F
:103F5000424622B15946006912F080FF08B9AAEB27
:103F60000800002825DAD9F80C30002B4BD0284661
:103F7000C5E9004403B0BDE8F08F4B69CBB10C69D3
:103F8000D7F80480D4F81490C1454A4628BF424669
:103F900022B13968206912F061FF08B9A9EB080065
:103FA000002806DA00232846C5E9003403B0BDE83E
:103FB000F08F28463A463146FFF730FF284603B0D7
:103FC000BDE8F08F3369A342ECD0204612F0F2FC3A
:103FD000D0F814A08146C245524628BF424662B17D
:103FE0005846D9F8101012F039FF30B10028E0DA45
:103FF000E3682BB1C5E9009996E7A8EB0A00F5E75D
:10400000C5E9003490E7C5E900398DE7914200F039
:1040100094802DE9F04F0D4687B09246804600F11E
:1040200004092AE0484B9B4500F28B80584612F069
:104030005CFC0346D5E9061CACEB010203EB0B006C
:104040008C452063C4E90A3305D01846019212F06A
:1040500023FF019A034603EB020C21464B463A46E6
:104060003046C4F82CC012F0A9FCD8F81430013343
:10407000C8F814302435AA455CD02B464A46414640
:1040800004A8FFF723FF059F002FF3D0A9EB070635
:10409000049BB6FA86F67609002B18BF46F0010697
:1040A000002E38D0342012F020FC04461830D5E918
:1040B00000B320611BEB030F02D0BBF1000F3DD01A
:1040C0000F2B039315D8012B10D19BF800202276DB
:1040D00000226361C2542263D5E9061CC4E90A22A6
:1040E000BCEB010B9ED15A465B46A7E7002BEFD0F5
:1040F0000AE0002203A904F11000019312F0CEFCA3
:10410000039A019B2061A2611A46594612F0B6FE3D
:10411000039B2069DCE76E687C693246A64228BFB3
:10412000224622B13969286812F098FE00B9301B86
:10413000C60FB7E707B0BDE8F08F7047034812F02D
:104140009BFC12F096FC00BFFCFFFF7FB09E0108B5
:104150002DE9F04FADF50F7D0123C24959A85893C1
:10416000FCF726FB0223C04960A85F93FCF720FB05
:104170000323BE4967A858AC6693FCF719FB0423D8
:10418000BB496EA882AD6D93FCF712FB0523B949BC
:1041900075A87493FCF70CFB0623B7497CA87B93A6
:1041A000FCF706FBB54800232146021D037183601E
:1041B0004361C0E903222A46FDF7D4FF1C3D281DB8
:1041C00012F08EFCA542F9D1AD4D4FF00709AD4A72
:1041D0000DF14808AC490DF1700BA84810AF12F072
:1041E0007DFB0DF5A27C0DF1780ECDF87C90CDF81D
:1041F00078C00EAE4FF0050A0FCDACE80F0095E881
:10420000070043468CE807009EE806002FA8FDF74C
:10421000D1FA2FAA93492046FDF7FAFA05F10C0EC0
:104220000DF5947CBEE80F00CDE91CC9ACE80F0089
:104230009EE807003B468CE807009BE806002CA898
:104240000DF1680BFDF7B6FA2CAA874961A8FDF7B6
:1042500019FB05F1280E0DF5867CBEE80F00CDE9AF
:104260001AC9ACE80F009EE8070033468CE8070047
:104270009BE8060029A80DF1600BFDF79BFA29AA1F
:104280007A496AA8FDF738FB37AB05F1440E9C4626
:10429000CDE9183ABEE80F00ACE80F00DEF80030B8
:1042A00026A8CCF800300CAB9BE80600FDF782FA9C
:1042B00026AA6F4973A8FDF759FB32AB05F1580CDC
:1042C000CDF85CA016939A460DF1580E6C35BCE8FB
:1042D0000F00AAE80F00DCF8003023A89EE80600D3
:1042E000CAF800300AABFDF765FA23AA61497CA839
:1042F000FDF73CFB0DF1F00C0DF1500ECDF8549094
:10430000CDF850C00FCDACE80F0095E8070008AB22
:104310008EAD8CE807009EE8060020A8FDF74AFA5B
:1043200020AA554985A8FDF75BFB584800238EAAB3
:104330002146037183604361031DC0E90333FFF726
:1043400065FE243D05F11800FDF7ECFB284612F050
:10435000C7FBA542F5D120A84D4DFDF7E3FB23A8EF
:10436000FDF7E0FB26A8FDF7DDFB29A8FDF7DAFB4A
:104370002CA8FDF7D7FB2FA8FDF7D4FB414A4549F0
:104380004FF0070941484FF0050A12F0A7FA51AB68
:10439000C8F80490C8F800309C460FCDACE80F0078
:1043A00095E8070007AB8CE8070098E806002FA8FF
:1043B000FDF700FA2FAA2B492046FDF729FA4AAB50
:1043C000A5F1100EC7F804903B609C46BEE80F00B4
:1043D000ACE80F0095E8070006AB8CE8070097E80B
:1043E00006002CA8FDF7E6F92CAA1F4961A8FDF7E5
:1043F00049FA43ABA5F1100CC6F8049033601F4690
:10440000BCE80F000FC795E8070005AB87E8070079
:1044100096E8060029A805F10C07FDF7CBF929AAB3
:1044200012496AA8FDF768FA37ABCDF834A00C93AF
:104430001E460FCF0FC63B680CAA26A805F1200721
:10444000336004AB06CAFDF7B5F926AA084973A87C
:10445000FDF78CFA32ABCDF82CA00A931E460FCF95
:104460000FC619E0C8A00108D0A00108E0A001080B
:10447000F0A0010804A1010818A101080408002403
:10448000889D010800000024D10F00081C080024AA
:10449000209E0108850900083B680AAA23A8A5F107
:1044A0001007336003AB06CAFDF784F923AABA49A3
:1044B0007CA8FDF75BFA3CABCDF8249008931E4630
:1044C0000FCF0FC695E8070086E8070008AA02ABE1
:1044D00020A88EAD06CAFDF76DF920AAAF4985A8C0
:1044E000FDF77EFAAE4800238EAA21460371836051
:1044F0004361031DC0E90333FFF788FD243D05F147
:104500001800FDF70FFB284612F0EAFAA542F5D194
:1045100020A8A44DFDF706FB23A8FDF703FB26A862
:10452000FDF700FB29A8FDF7FDFA2CA8FDF7FAFA24
:104530002FA8FDF7F7FA9C4A9C4905F52068984892
:1045400012F0CCF99A480023974A9A490362836291
:10455000C0E9033312F0C2F91AE0AB7FB0EE005BA2
:104560002A7F013B07EE102A06EE903A2B46B8EE62
:10457000C77B5035B8EEE66B45459FED854BA6EE03
:10458000047B37EE457BB7EEC77B83ED007A37D0EF
:10459000002205F124012E1D05F13C0705F10C0058
:1045A0004FF0040E4FF0010C4FF00209824BCDF892
:1045B000009029632A7385F824206A6385F83C20DB
:1045C00085F81CE085F81EC0C5E90102C5E90A218D
:1045D00030461146C5E91027C5E9127212F020FBDA
:1045E0003C23764930466B7712F098FB0028B4D113
:1045F0002B4650359FED727A454583ED007AC7D141
:10460000704D0020684A704912F068F928466F49D9
:10461000FCF7CEF8644A6E49284612F05FF96D49FE
:104620006D48FCF7C5F8604A69496B4812F056F9C5
:104630005AA8D5E900655890EE4202D0002E00F04D
:10464000A4800F2D519500F29380012D40F08980B8
:1046500033788DF86831519B002558995F4A5993FA
:104660005F48CD5421461278FEF7FEF9204612F03D
:1046700037FA4D4A5B495A4812F030F956495A48C0
:10468000FDF7E8F901465948FDF720FA464A58492E
:10469000564812F023F950494148564CFDF7DAF9D3
:1046A00001465548FDF712FA3F4A5149524812F067
:1046B00015F904F1240204F13C0304F10C01A56096
:1046C000201D61600421A364257384F8245084F8BC
:1046D0003C50E564C4E90A52C4E90C25C4E910530E
:1046E000012202230093344B21772946A2772A46E0
:1046F00012F096FA3C233149201D637712F00EFB2D
:10470000002832D0A37FB0EE005B227F013B07EE92
:10471000102A06EE903AB8EEC77BB8EEE66B9FED36
:104720001C4BA6EE047B37EE457BB7EEC77B1E4ADB
:104730002C49304884ED007A12F0D0F81A4A2F49FB
:104740002F4812F0CBF8184A2C492E4812F0C6F820
:10475000154A2D492D480DF50F7DBDE8F04F12F09B
:10476000BDB8002D3FF477AF0AE09FED157ADEE784
:10477000002251A9204612F091F9519B58905A936A
:104780002A46314612F07AFB65E7214812F074F9A7
:10479000F792C6681D55B53F04A1010818A101088C
:1047A00034080024140B00240000002485090008AC
:1047B0006C080024E106000824A101086C9F010890
:1047C00000000000EC0700244D0F000828A101089C
:1047D000156C0108C8A00108D407002405000024B6
:1047E000C40A0024051000081C08002458150024E1
:1047F00031090008700A00244C150024DD06000869
:104800004C08002414150024E5060008500A002472
:10481000B09E0108FFF79CBC00294ED0274BF0B595
:10482000D0E90024481E03F10C0E951C03F1100C76
:104830004E00AC4218BF052802EB41058CBF012099
:104840000020624538BFAE452CBF01270027384203
:1048500027D02644644538BFB64522D39D8900261B
:10486000D8894FEA510E65F30F06A44602EB8E0E6F
:1048700065F31F46002560F30F0560F31F451046E2
:1048800040F8046B70454CF8045BF9D121F001004D
:10489000C90705D5998922F81010DB8924F8103052
:1048A000F0BD023A023C023D998922F8021FAA4259
:1048B000D98924F8021FF7D1F0BD70476415002490
:1048C0002DE9F04140F201138E4A012506462DEDF7
:1048D000028BD8B0C0F8CC21ADF814300023049579
:1048E0008DF8163003F070FD002840F0FA80304655
:1048F00004A903F0C5FC06F1080000F093FA824910
:104900000DF19408814B06F10C00814ACDE9251385
:10491000012341462792ADF8A03002F045FE032264
:10492000012300241AA902A806F110051A9414AF55
:104930000294CDE91E2300220123CDE92023012288
:104940000023CDE92223734B1B9303F1007303F57E
:1049500040731C934FF44173ADF8743003F0A4F925
:1049600001230AA903A80D940A930C93102303941E
:104970008DF83830684B0B9302F0A8FB039906F1D1
:10498000200000F04DF94FF07E533021029A089339
:10499000284609930323CDE9061306A901F032F94D
:1049A000284601F06BF92846B0EE408A01F062F922
:1049B000D0ED007ABC46DFF880E14546F8EE677A34
:1049C000BEE80F0088EE277AACE80F009EE80300EF
:1049D0008CE8030086ED727A37F81410013428460B
:1049E000113501F0D9FB0C2CF6D106F11407224643
:1049F00004234146384606F1300500249FED478ADE
:104A000001F0D8FB09E001F0CFFD96ED720A0146F6
:104A10002846013401F09CF92035072CE1B23846D4
:104A2000F1D9E1B2013401F0BFFD00230146F0EEFF
:104A3000480A28461A4696ED720A01F057F90C2CDE
:104A4000EAD1374B012430461B88F48520F82C3FEF
:104A500002F0D2F82246334906F5D87001F0D2F9B7
:104A60002246314906F2B71001F0CCF92F4B06F57A
:104A7000DF70A6F8C0411B88A6F8BE3102F0BCF872
:104A80002B4B06F5E170A6F8C4411B88A6F8C2318D
:104A900002F0B2F80223D6F8CC010FA9109300233C
:104AA000103013934BF68033CDE911440F9301F08E
:104AB000CFFF384601F062FDD6F8CC41237D04F1EA
:104AC0001005DBB928461B4D2368D4E90112009577
:104AD00002F03CF80123237558B0BDEC028BBDE811
:104AE000F081044604A930468DF8165003F0C8FB47
:104AF000072C7FF404AF0DF1940810E7284602F06C
:104B00005BF8DFE7641500240508050905070506BD
:104B1000050A060604020404010A010B6F12033B96
:104B200044A1010840A101083CA1010830A10108ED
:104B30002CA1010819480008649E0108103001F0FA
:104B4000A1B800BF143001F019BD00BF38B500F1A5
:104B5000300400F5D8752046203401F02FF9AC421E
:104B6000F9D138BD704700BF00EB411191ED0F0A3C
:104B7000704700BF0129D0F8CC211CD931F00201C7
:104B80000DD19FED1B7ADFED1B7A20EE070AB4EE04
:104B9000E70AF1EE10FA03DD40F6FF71D1817047AC
:104BA000B5EEC00AF1EE10FAF8D4BCEEC00A10EE71
:104BB000103A99B2F2E7DFED0E7A9FED0E7A60EED1
:104BC000277AF4EEC77AF1EE10FA0ADCF5EEC07A35
:104BD000F1EE10FA09D4FCEEE77A17EE903A9BB2A8
:104BE00001E040F6FF739381C8E70023FBE700BFB5
:104BF00000C04C4400F07F4507490022074B01F1FB
:104C0000600010B4302459601A611C601A755DF898
:104C1000044BC3E902027047000000306415002411
:104C2000F0B58C2387B00160002203710124FA26BD
:104C3000194605AB8DF814200296402200932346B6
:104C40000194054602F0D8FA002840F09B809DF8B8
:104C500014300DF117074022284603F07F03009718
:104C6000CDE901468DF814308DF8173023462979A7
:104C700002F0E8FA002840F08580042003F034FABE
:104C800005AB4022284600932346CDE90146297909
:104C900002F0B2FA002875D19DF814304022009736
:104CA000284603F0BF03CDE901468DF814308DF896
:104CB00017302346297902F0C5FA002862D1042072
:104CC00003F012FA0DF11503432228460093234600
:104CD000CDE90146297902F08FFA002852D10DF171
:104CE00016034822284600932346CDE90146297938
:104CF00002F082FA002845D19DF815304322009732
:104D0000284643F001038DF815308DF817309DF8D3
:104D1000163043F00103CDE901468DF816302346E5
:104D2000297902F08FFA68BB9DF816304822009767
:104D300028468DF817302346CDE90146297902F03F
:104D400081FAF8B905AB4022284600932346CDE905
:104D50000146297902F050FAA0B99DF814202346A3
:104D60000194284602F0CF04029600974022297948
:104D70008DF814408DF8174002F064FA003818BF1F
:104D8000012000E0012007B0F0BD00BFF0B5102306
:104D900087B0234C012200250126002702A92046C6
:104DA0000195CDE902234FF48052CDE904670BF061
:104DB00041F9642004F046F902A94FF480522046DC
:104DC000CDE9046702261027CDE902670BF032F91E
:104DD0000322102302A92046CDE902230023042246
:104DE000CDE904234FF480520BF024F940F2322332
:104DF000042202A9019310232046CDE90223019A3F
:104E0000012305924FF4805204930BF013F940F6FE
:104E1000060120460BF02EF9284607B0F0BD00BF72
:104E2000841500241C4B00221C494FF0400C30B567
:104E3000054689B00220596007219A601A62012450
:104E4000DA620A224FF4006EDC6006922022CDE97D
:104E5000000104200821CDE9020103201021CDE941
:104E6000040108206946C3E904024FF4C072181D0A
:104E7000C3E906C24FF48052C3E909E20BF0B0F86F
:104E800038B92846FFF782FF003818BF012009B063
:104E900030BD204609B030BD80150024404100528D
:104EA000614A0021D0B513688EB00A91002B40F002
:104EB000B9805E4B01214FF683700C2411600221F2
:104EC000D3F8D4200026032742F48052C3F8D4201C
:104ED000D3F8D42002F480520092009AD3F8E02054
:104EE00042F01002C3F8E020D3F8E02002F01002F4
:104EF0000192019AD3F8E02042F04002C3F8E0208A
:104F0000D3F8E02002F040020292029AD3F8E020A7
:104F100042F00802C3F8E020D3F8E02002F00802D3
:104F20000392039AD3F8E02042F48072C3F8E020A1
:104F3000D3F8E02002F480720492049AD3F8E020BF
:104F400042F08002C3F8E020D3F8E02002F08002B3
:104F50000592059AD3F8E02042F02002C3F8E02041
:104F6000D3F8E02002F020020692069AD3F8E0205F
:104F700042F00402C3F8E020D3F8E0300C9403F0D0
:104F8000040307930323079A0B93CDE9080108A9AB
:104F9000274806F0C3F948F23712022308A925482A
:104FA0000C94CDE90823CDE90A6706F0B7F94CF275
:104FB0000372022308A920480C94CDE90823CDE907
:104FC0000A6706F0ABF940F2FF62022308A91B480A
:104FD0000C94CDE90823CDE90A6706F09FF94FF656
:104FE0000C72022308A916480C94CDE90823CDE9D8
:104FF0000A6706F093F94FF63F02022308A9114809
:105000000C94CDE90823CDE90A6706F087F9202240
:10501000022308A90A480C94CDE90A67CDE90823C0
:1050200006F07CF90EB0D0BD7C1500240044025877
:105030000010025800180258000C025800200258B4
:10504000001C0258001402582DE9F04FDFF81084BC
:1050500006460D46144608F118002DED028B89B066
:1050600000AF02F019FFD8F8183073B3D8F81C302D
:10507000D8F80490002B43690BBF4FF0080A4FF09B
:10508000100A4FF0020B4FF0040BB9F1000F2AD0B9
:10509000A200EA46012B02F1070222F00702ADEB63
:1050A000020D6846ADEB020D694600F03F81022B10
:1050B00000F0D680002B6FD02246C847D546243753
:1050C000BD46BDEC028BBDE8F08FD8F81C30002B3C
:1050D000F5D0D8F804904FF0080A4FF0020B43695E
:1050E000B9F1000FD4D1FB61D8F80030BB61002BBF
:1050F000E5D0D54802F042FF6B46BBF1020F786164
:1051000008EE103AFB6900F083816A465146A2EB33
:10511000C40295466200EA46B2FBFBF2AAEBC40069
:1051200085460AEB8200EE46F861ADEB010DF869A9
:105130000EEB820CC7F810C0EC46ADEB010D00EB96
:105140008201CCF80400CCF8081001EB8201386928
:10515000E946CCF80C1000EB8201CCF800A001EB82
:105160008202C9E900E0C9E90212012B00F0648360
:10517000022B00F06C82002B00F08081620849460F
:105180006046BB69984718EE103A24379D46BD46E5
:10519000BDEC028BBDE8F08F002C8DD01A46D8ED07
:1051A0000C6A9FEDB27A8446331D36F922E00CF189
:1051B000080C07EE90EA33F922E00232F8EEE77AC3
:1051C000944267EE877A67EEA67A4CED027A07EE94
:1051D00090EAF8EEE77A67EE877A67EEA67A4CED0A
:1051E000017AE2D8F9612246C847984ED8ED0D6A97
:1051F0000020F9692B1D9FED9E7A9FED9E6ADFEDE1
:105200009E5A22E0F4EEC67AF1EE10FAC0F2C8849B
:1052100047F6FE72D1ED017A45F8202066EEA77AB6
:10522000F4EEC77AF1EE10FA40F2F080F4EEC67AAE
:10523000F1EE10FAC0F2D58447F6FE7243F8202052
:105240000230083184427FF639AFD1ED007A66EE44
:10525000A77AF4EEC77AF1EE10FAD3D83246D9E73E
:10526000002C3FF429AFD8ED0C6A84469FED787A84
:105270000022331D8E4656F822100CF1080C07EE62
:10528000901A53F822100232F8EEE77A944267EE51
:10529000877A67EEA67A4CED027A07EE901AF8EE5E
:1052A000E77A67EE877A67EEA67A4CED017AE2D864
:1052B00071462246C7F81CE0C847664ED8ED0D6A15
:1052C0000020F9692B1D9FED6A7A9FED6A6ADFF86D
:1052D00094C120E0F4EEC67AF1EE10FAC0F27984BF
:1052E0003246D1ED017A45F8202066EEA77AF4EE39
:1052F000C77AF1EE10FA40F28780F4EEC67AF1EE4A
:1053000010FAC0F25E84324643F8202002300831A1
:1053100084427FF6D3AED1ED007A66EEA77AF4EE42
:10532000C77AF1EE10FAD5D86246DAE7002C3FF4DE
:10533000C3AED8ED0C6A86469FED477A4FF0000C5D
:10534000331D56F82C200EF1080E82F40002A2F54F
:10535000000207EE902A53F82C200CF1020CF8EE14
:10536000E77A82F400026445A2F5000267EE877ACC
:1053700067EEA67A4EED027A07EE902AF8EEE77A0B
:1053800067EE877A67EEA67A4EED017AD9D8F96191
:105390002246C847314ED8ED0D6A0020F9692B1D11
:1053A0009FED337A9FED336ADFF8BCC01FE0F4EE67
:1053B000C67AF1EE10FAC0F2FC833246D1ED017AE2
:1053C00045F8202066EEA77AF4EEC77AF1EE10FADF
:1053D00018D9F4EEC67AF1EE10FAC0F2DA8332464A
:1053E00043F820200230083184427FF667AED1EDC9
:1053F000007A66EEA77AF4EEC77AF1EE10FAD6D804
:105400006246DBE76246EBE762467DE7324615E738
:10541000A100D6466208073121F00701ADEB010D6E
:10542000EA46ADEB010D6946ADEB0E0D0AEB8200CD
:10543000EC46ADEB0E0D01EB8202F861E946CCE9DA
:1054400000A0C9E9001290E6D41500240280FFFFF5
:10545000000000300082FF7F0000003482FF7F00E8
:10546000B8150024007E00807E0080FF0000003818
:1054700004FF7FBF04FF7F3F00FEFF46002C00F0CB
:10548000C982BBF1020FD8F8242000F0FA827969B2
:10549000C7F8049002EB810E5FED0C5A8A00DCF82D
:1054A00008100EF104007A611A46DCF80C303B61FA
:1054B000331DD7F810903D61FD69C7E902CB8C46DA
:1054C000834636F92210D8ED0C7A06EE101A33F91D
:1054D000221006EE901A3EF92210B8EEC66A07EEC8
:1054E000101AF8EEE66A3BF92210B8EEC77A26EEFB
:1054F000256A66EEA56A27EE257A26EE276A66EE0D
:10550000A76A27EE277A07EE901A51080232F8EEC2
:10551000E77A0AEB8100944280ED006A05EB810096
:1055200067EEA57AC0ED006A0CEB810009EB810102
:1055300080ED007A98ED0C7A67EE877AC1ED007AFB
:10554000BFD8D7F804903D69D7E902CB604662081E
:10555000BB6949469847D8F82C307A69D8ED0D6A6E
:105560001A441FED3D7A1FED3D6A2B1D904602F156
:10557000040A5FED3F5A0022A84ED9E900EC51E041
:10558000F4EEC67AF1EE10FAC0F2C78247F6FE706A
:1055900045F822000CEB0100D0ED007A66EEA77A08
:1055A000F4EEC77AF1EE10FA4BD9F4EEC67AF1EECA
:1055B00010FAC0F2BA8247F6FE70BBF1020F43F850
:1055C00022002BD0D9F808000844D0ED007A66EE0E
:1055D000A77AF4EEC77AF1EE10FA36D9F4EEC67A6D
:1055E000F1EE10FAC0F2CD8247F6FE7048F82200C4
:1055F000D9F80C000144D1ED007A66EEA77AF4EEFA
:10560000C77AF1EE10FA1ED9F4EEC67AF1EE10FA6E
:10561000C0F2AF8247F6FE714AF82210023294427D
:105620007FF6B1AD51080EEB81008900D0ED007A14
:1056300066EEA77AF4EEC77AF1EE10FAA0D83046FB
:10564000A6E73046B9E73146E6E73046CEE7002C1C
:1056500000F0E081BBF1020FD8F8243000F0E181C6
:105660007A69DCF8081003EB820EC7F80490930007
:10567000DFED6B5A0EF1040000227B61DCF80C3088
:105680003B61331DD7F810903D61FD69C7E902CB3E
:105690008C46834656F82210D8ED0C7A07EE101A85
:1056A00053F82210B8EEC76A07EE101A5EF82210FF
:1056B000F8EEC76A07EE101A26EE256A5BF822108C
:1056C000B8EEC77A66EEA56A26EE276A27EE257A37
:1056D00066EEA76A27EE277A07EE901A5108023283
:1056E000F8EEE77A0AEB8100944280ED006A05EB60
:1056F000810067EEA57AC0ED006A0CEB810009EB32
:10570000810180ED007A98ED0C7A67EE877AC1ED21
:10571000007ABFD8D7F804903D69D7E902CB60463C
:105720006208BB6949469847D8F82C307A69D8EDA9
:105730000D6A1A449FED3E7A9FED3E6A131D924614
:10574000DFF8E4C00022FB612B1D364ED9E9008E44
:105750004EE0F4EEC67AF1EE10FAC0F2FC8130466B
:1057600045F822000EEB0100D0ED007A66EEA77A34
:10577000F4EEC77AF1EE10FA49D9F4EEC67AF1EEFA
:1057800010FAC0F2EF813046BBF1020F43F822005D
:105790002AD0D9F808000844D0ED007A66EEA77A3E
:1057A000F4EEC77AF1EE10FA35D9F4EEC67AF1EEDE
:1057B00010FAC0F2C98130464AF82200D9F80C002C
:1057C0000144D1ED007A66EEA77AF4EEC77AF1EEE5
:1057D00010FA1ED9F4EEC67AF1EE10FAC0F2AD81DD
:1057E0003146F86940F82210023294427FF6CBAC81
:1057F000510808EB81008900D0ED007A66EEA77AA7
:10580000F4EEC77AF1EE10FAA3D86046A8E7604636
:10581000BAE76146E5E76046CEE700BF0280FFFFDA
:10582000000000300082FF7F007E00800000003416
:1058300004FF7FBF04FF7F3F002C00F0EB807A69FC
:105840000021D8F82430C7F8109003EB820ED7F867
:105850001C909300FD610EF104021FED0C6A7B6148
:10586000331D154656F821204808D8ED0C6ABBF1C7
:10587000020F82F40002A2F5000207EE902A53F80C
:10588000212082F40002B8EEE77AA2F5000227EEAA
:10589000067A07EE902A0AEB8002F8EEE77A27EE06
:1058A000267A67EE867A82ED007A09EB80024FEA6B
:1058B000800067EEA67AC2ED007A27D05EF821203C
:1058C00082F40002A2F5000207EE902A55F821208A
:1058D00082F40002B8EEE77AA2F5000227EE067A1B
:1058E00007EE902ADCF80820F8EEE77A024427EE6B
:1058F000267A67EE867A82ED007A98ED0C7ADCF8EB
:105900000C2067EE877A0244C2ED007A02318C42A5
:10591000A8D8D7F8109060466208BB694946FD696F
:105920009847D8F82C307A69D8ED0D6A1A441FEDE3
:10593000407A1FED406A131D9246DFF8C4C2002270
:10594000FB612B1DAB4ED9E9008E4EE0F4EEC67A1A
:10595000F1EE10FAC0F2C580304645F822000EEB99
:105960000100D0ED007A66EEA77AF4EEC77AF1EE88
:1059700010FA49D9F4EEC67AF1EE10FAC0F2BF80FF
:105980003046BBF1020F43F822002AD0D9F80800B4
:105990000844D0ED007A66EEA77AF4EEC77AF1EE0D
:1059A00010FA35D9F4EEC67AF1EE10FAC0F2AE80F4
:1059B00030464AF82200D9F80C000144D1ED007AB3
:1059C00066EEA77AF4EEC77AF1EE10FA1ED9F4EE7D
:1059D000C67AF1EE10FAC0F28B803146F86940F8D1
:1059E0002210023294427FF6CEAB510808EB8100C0
:1059F0008900D0ED007A66EEA77AF4EEC77AF1EE70
:105A000010FAA3D86046A8E76046BAE76146E5E722
:105A10006046CEE7224649466046BB699847FFF795
:105A2000B2BBC7F810B0002298ED0C6A331DDFED51
:105A3000726AD7F81CB0786956F8221007EE901AEF
:105A400053F82210B8EEE77A07EE901A51080232A6
:105A5000F8EEE77A27EE267A0AEB810E94420BEBFA
:105A6000810167EEA67A27EE067A67EE867A8EEDDA
:105A7000007AC1ED007ADFD88300D7F810B07B61DF
:105A80004DE61A46C7F810B098ED0C6A331DDFEDED
:105A90005B6AD7F81CB0786936F9221007EE101A45
:105AA00033F9221007EE901AB8EEC77A5108023285
:105AB000F8EEE77A27EE267A0AEB810E94420BEB9A
:105AC000810167EEA67A27EE067A67EE867A8EED7A
:105AD000007AC1ED007ADFD88300D7F810B07B617F
